{
  "address": "0x64be4A2798973a284a37D82885C3f59b7e487D36",
  "abi": [
    {
      "inputs": [
        {
          "internalType": "string",
          "name": "name_",
          "type": "string"
        },
        {
          "internalType": "string",
          "name": "symbol_",
          "type": "string"
        },
        {
          "internalType": "string",
          "name": "contractURI_",
          "type": "string"
        },
        {
          "internalType": "uint256",
          "name": "totalLimit_",
          "type": "uint256"
        },
        {
          "internalType": "address",
          "name": "cr2ContractAddress_",
          "type": "address"
        }
      ],
      "stateMutability": "nonpayable",
      "type": "constructor"
    },
    {
      "anonymous": false,
      "inputs": [
        {
          "indexed": true,
          "internalType": "address",
          "name": "account",
          "type": "address"
        },
        {
          "indexed": true,
          "internalType": "address",
          "name": "operator",
          "type": "address"
        },
        {
          "indexed": false,
          "internalType": "bool",
          "name": "approved",
          "type": "bool"
        }
      ],
      "name": "ApprovalForAll",
      "type": "event"
    },
    {
      "anonymous": false,
      "inputs": [
        {
          "indexed": false,
          "internalType": "address",
          "name": "",
          "type": "address"
        },
        {
          "indexed": false,
          "internalType": "string",
          "name": "",
          "type": "string"
        }
      ],
      "name": "ContractDeployed",
      "type": "event"
    },
    {
      "anonymous": false,
      "inputs": [
        {
          "indexed": false,
          "internalType": "string",
          "name": "",
          "type": "string"
        }
      ],
      "name": "ContractURIChanged",
      "type": "event"
    },
    {
      "anonymous": false,
      "inputs": [
        {
          "indexed": false,
          "internalType": "uint256",
          "name": "",
          "type": "uint256"
        }
      ],
      "name": "LazyMinted",
      "type": "event"
    },
    {
      "anonymous": false,
      "inputs": [
        {
          "indexed": false,
          "internalType": "uint256",
          "name": "",
          "type": "uint256"
        },
        {
          "indexed": false,
          "internalType": "uint256",
          "name": "",
          "type": "uint256"
        },
        {
          "indexed": false,
          "internalType": "address",
          "name": "",
          "type": "address"
        },
        {
          "indexed": false,
          "internalType": "address",
          "name": "",
          "type": "address"
        }
      ],
      "name": "NFTTransfered",
      "type": "event"
    },
    {
      "anonymous": false,
      "inputs": [
        {
          "indexed": true,
          "internalType": "address",
          "name": "previousOwner",
          "type": "address"
        },
        {
          "indexed": true,
          "internalType": "address",
          "name": "newOwner",
          "type": "address"
        }
      ],
      "name": "OwnershipTransferred",
      "type": "event"
    },
    {
      "anonymous": false,
      "inputs": [
        {
          "indexed": false,
          "internalType": "uint256",
          "name": "",
          "type": "uint256"
        },
        {
          "indexed": false,
          "internalType": "string",
          "name": "",
          "type": "string"
        }
      ],
      "name": "TokenURIChanged",
      "type": "event"
    },
    {
      "anonymous": false,
      "inputs": [
        {
          "indexed": true,
          "internalType": "address",
          "name": "operator",
          "type": "address"
        },
        {
          "indexed": true,
          "internalType": "address",
          "name": "from",
          "type": "address"
        },
        {
          "indexed": true,
          "internalType": "address",
          "name": "to",
          "type": "address"
        },
        {
          "indexed": false,
          "internalType": "uint256[]",
          "name": "ids",
          "type": "uint256[]"
        },
        {
          "indexed": false,
          "internalType": "uint256[]",
          "name": "values",
          "type": "uint256[]"
        }
      ],
      "name": "TransferBatch",
      "type": "event"
    },
    {
      "anonymous": false,
      "inputs": [
        {
          "indexed": true,
          "internalType": "address",
          "name": "operator",
          "type": "address"
        },
        {
          "indexed": true,
          "internalType": "address",
          "name": "from",
          "type": "address"
        },
        {
          "indexed": true,
          "internalType": "address",
          "name": "to",
          "type": "address"
        },
        {
          "indexed": false,
          "internalType": "uint256",
          "name": "id",
          "type": "uint256"
        },
        {
          "indexed": false,
          "internalType": "uint256",
          "name": "value",
          "type": "uint256"
        }
      ],
      "name": "TransferSingle",
      "type": "event"
    },
    {
      "anonymous": false,
      "inputs": [
        {
          "indexed": false,
          "internalType": "string",
          "name": "value",
          "type": "string"
        },
        {
          "indexed": true,
          "internalType": "uint256",
          "name": "id",
          "type": "uint256"
        }
      ],
      "name": "URI",
      "type": "event"
    },
    {
      "inputs": [],
      "name": "MINTER_ROLE",
      "outputs": [
        {
          "internalType": "bytes32",
          "name": "",
          "type": "bytes32"
        }
      ],
      "stateMutability": "view",
      "type": "function"
    },
    {
      "inputs": [],
      "name": "_currentTokenID",
      "outputs": [
        {
          "internalType": "uint256",
          "name": "",
          "type": "uint256"
        }
      ],
      "stateMutability": "view",
      "type": "function"
    },
    {
      "inputs": [
        {
          "internalType": "address",
          "name": "account",
          "type": "address"
        },
        {
          "internalType": "uint256",
          "name": "id",
          "type": "uint256"
        }
      ],
      "name": "balanceOf",
      "outputs": [
        {
          "internalType": "uint256",
          "name": "",
          "type": "uint256"
        }
      ],
      "stateMutability": "view",
      "type": "function"
    },
    {
      "inputs": [
        {
          "internalType": "address[]",
          "name": "accounts",
          "type": "address[]"
        },
        {
          "internalType": "uint256[]",
          "name": "ids",
          "type": "uint256[]"
        }
      ],
      "name": "balanceOfBatch",
      "outputs": [
        {
          "internalType": "uint256[]",
          "name": "",
          "type": "uint256[]"
        }
      ],
      "stateMutability": "view",
      "type": "function"
    },
    {
      "inputs": [
        {
          "internalType": "address",
          "name": "from",
          "type": "address"
        },
        {
          "internalType": "address",
          "name": "to",
          "type": "address"
        },
        {
          "internalType": "uint256[]",
          "name": "ids",
          "type": "uint256[]"
        },
        {
          "internalType": "uint256[]",
          "name": "amounts",
          "type": "uint256[]"
        },
        {
          "internalType": "bytes",
          "name": "data",
          "type": "bytes"
        }
      ],
      "name": "batchTransferFrom",
      "outputs": [],
      "stateMutability": "payable",
      "type": "function"
    },
    {
      "inputs": [
        {
          "internalType": "uint256",
          "name": "_id",
          "type": "uint256"
        },
        {
          "internalType": "uint256",
          "name": "_amount",
          "type": "uint256"
        }
      ],
      "name": "burn",
      "outputs": [],
      "stateMutability": "payable",
      "type": "function"
    },
    {
      "inputs": [],
      "name": "contractURI",
      "outputs": [
        {
          "internalType": "string",
          "name": "",
          "type": "string"
        }
      ],
      "stateMutability": "view",
      "type": "function"
    },
    {
      "inputs": [
        {
          "internalType": "uint256",
          "name": "",
          "type": "uint256"
        }
      ],
      "name": "curMintedSupplies",
      "outputs": [
        {
          "internalType": "uint256",
          "name": "",
          "type": "uint256"
        }
      ],
      "stateMutability": "view",
      "type": "function"
    },
    {
      "inputs": [
        {
          "internalType": "uint256",
          "name": "tokenID",
          "type": "uint256"
        }
      ],
      "name": "getCurMintedSupply",
      "outputs": [
        {
          "internalType": "uint256",
          "name": "",
          "type": "uint256"
        }
      ],
      "stateMutability": "view",
      "type": "function"
    },
    {
      "inputs": [
        {
          "internalType": "uint256",
          "name": "_id",
          "type": "uint256"
        }
      ],
      "name": "getRoyaltyAddress",
      "outputs": [
        {
          "internalType": "address",
          "name": "",
          "type": "address"
        }
      ],
      "stateMutability": "view",
      "type": "function"
    },
    {
      "inputs": [
        {
          "internalType": "uint256",
          "name": "_id",
          "type": "uint256"
        }
      ],
      "name": "getRoyaltyFee",
      "outputs": [
        {
          "internalType": "uint256",
          "name": "",
          "type": "uint256"
        }
      ],
      "stateMutability": "view",
      "type": "function"
    },
    {
      "inputs": [
        {
          "internalType": "string",
          "name": "_name",
          "type": "string"
        },
        {
          "internalType": "string",
          "name": "_symbol",
          "type": "string"
        }
      ],
      "name": "init",
      "outputs": [],
      "stateMutability": "nonpayable",
      "type": "function"
    },
    {
      "inputs": [
        {
          "internalType": "uint256",
          "name": "",
          "type": "uint256"
        }
      ],
      "name": "initialSupplies",
      "outputs": [
        {
          "internalType": "uint256",
          "name": "",
          "type": "uint256"
        }
      ],
      "stateMutability": "view",
      "type": "function"
    },
    {
      "inputs": [
        {
          "internalType": "address",
          "name": "account",
          "type": "address"
        },
        {
          "internalType": "address",
          "name": "operator",
          "type": "address"
        }
      ],
      "name": "isApprovedForAll",
      "outputs": [
        {
          "internalType": "bool",
          "name": "",
          "type": "bool"
        }
      ],
      "stateMutability": "view",
      "type": "function"
    },
    {
      "inputs": [],
      "name": "name",
      "outputs": [
        {
          "internalType": "string",
          "name": "",
          "type": "string"
        }
      ],
      "stateMutability": "view",
      "type": "function"
    },
    {
      "inputs": [],
      "name": "owner",
      "outputs": [
        {
          "internalType": "address",
          "name": "",
          "type": "address"
        }
      ],
      "stateMutability": "view",
      "type": "function"
    },
    {
      "inputs": [
        {
          "internalType": "address",
          "name": "redeemer",
          "type": "address"
        },
        {
          "internalType": "uint256",
          "name": "tokenId",
          "type": "uint256"
        },
        {
          "internalType": "string",
          "name": "metaUri",
          "type": "string"
        },
        {
          "internalType": "uint256",
          "name": "initialSupply",
          "type": "uint256"
        },
        {
          "internalType": "uint256",
          "name": "mintPrice",
          "type": "uint256"
        },
        {
          "internalType": "uint256",
          "name": "mintCount",
          "type": "uint256"
        },
        {
          "internalType": "uint256",
          "name": "royaltyFee",
          "type": "uint256"
        },
        {
          "internalType": "address",
          "name": "royaltyAddress",
          "type": "address"
        }
      ],
      "name": "redeem",
      "outputs": [
        {
          "internalType": "uint256",
          "name": "",
          "type": "uint256"
        }
      ],
      "stateMutability": "nonpayable",
      "type": "function"
    },
    {
      "inputs": [],
      "name": "redeemtest",
      "outputs": [
        {
          "internalType": "string",
          "name": "",
          "type": "string"
        }
      ],
      "stateMutability": "view",
      "type": "function"
    },
    {
      "inputs": [],
      "name": "renounceOwnership",
      "outputs": [],
      "stateMutability": "nonpayable",
      "type": "function"
    },
    {
      "inputs": [
        {
          "internalType": "uint256",
          "name": "",
          "type": "uint256"
        }
      ],
      "name": "royaltyAddresses",
      "outputs": [
        {
          "internalType": "address",
          "name": "",
          "type": "address"
        }
      ],
      "stateMutability": "view",
      "type": "function"
    },
    {
      "inputs": [
        {
          "internalType": "uint256",
          "name": "",
          "type": "uint256"
        }
      ],
      "name": "royaltyFees",
      "outputs": [
        {
          "internalType": "uint256",
          "name": "",
          "type": "uint256"
        }
      ],
      "stateMutability": "view",
      "type": "function"
    },
    {
      "inputs": [
        {
          "internalType": "address",
          "name": "from",
          "type": "address"
        },
        {
          "internalType": "address",
          "name": "to",
          "type": "address"
        },
        {
          "internalType": "uint256[]",
          "name": "ids",
          "type": "uint256[]"
        },
        {
          "internalType": "uint256[]",
          "name": "amounts",
          "type": "uint256[]"
        },
        {
          "internalType": "bytes",
          "name": "data",
          "type": "bytes"
        }
      ],
      "name": "safeBatchTransferFrom",
      "outputs": [],
      "stateMutability": "nonpayable",
      "type": "function"
    },
    {
      "inputs": [
        {
          "internalType": "address",
          "name": "from",
          "type": "address"
        },
        {
          "internalType": "address",
          "name": "to",
          "type": "address"
        },
        {
          "internalType": "uint256",
          "name": "id",
          "type": "uint256"
        },
        {
          "internalType": "uint256",
          "name": "amount",
          "type": "uint256"
        },
        {
          "internalType": "bytes",
          "name": "data",
          "type": "bytes"
        }
      ],
      "name": "safeTransferFrom",
      "outputs": [],
      "stateMutability": "nonpayable",
      "type": "function"
    },
    {
      "inputs": [
        {
          "internalType": "address",
          "name": "operator",
          "type": "address"
        },
        {
          "internalType": "bool",
          "name": "approved",
          "type": "bool"
        }
      ],
      "name": "setApprovalForAll",
      "outputs": [],
      "stateMutability": "nonpayable",
      "type": "function"
    },
    {
      "inputs": [
        {
          "internalType": "string",
          "name": "contractURI_",
          "type": "string"
        }
      ],
      "name": "setContractURI",
      "outputs": [],
      "stateMutability": "payable",
      "type": "function"
    },
    {
      "inputs": [
        {
          "internalType": "uint256",
          "name": "_id",
          "type": "uint256"
        },
        {
          "internalType": "string",
          "name": "_uri",
          "type": "string"
        }
      ],
      "name": "setURI",
      "outputs": [],
      "stateMutability": "payable",
      "type": "function"
    },
    {
      "inputs": [
        {
          "internalType": "bytes4",
          "name": "interfaceId",
          "type": "bytes4"
        }
      ],
      "name": "supportsInterface",
      "outputs": [
        {
          "internalType": "bool",
          "name": "",
          "type": "bool"
        }
      ],
      "stateMutability": "view",
      "type": "function"
    },
    {
      "inputs": [],
      "name": "symbol",
      "outputs": [
        {
          "internalType": "string",
          "name": "",
          "type": "string"
        }
      ],
      "stateMutability": "view",
      "type": "function"
    },
    {
      "inputs": [
        {
          "internalType": "uint256",
          "name": "_id",
          "type": "uint256"
        }
      ],
      "name": "totalSupply",
      "outputs": [
        {
          "internalType": "uint256",
          "name": "",
          "type": "uint256"
        }
      ],
      "stateMutability": "view",
      "type": "function"
    },
    {
      "inputs": [
        {
          "internalType": "uint256",
          "name": "_id",
          "type": "uint256"
        },
        {
          "internalType": "uint256",
          "name": "_amount",
          "type": "uint256"
        },
        {
          "internalType": "address",
          "name": "from",
          "type": "address"
        },
        {
          "internalType": "address",
          "name": "to",
          "type": "address"
        }
      ],
      "name": "transferNFT",
      "outputs": [],
      "stateMutability": "nonpayable",
      "type": "function"
    },
    {
      "inputs": [
        {
          "internalType": "address",
          "name": "newOwner",
          "type": "address"
        }
      ],
      "name": "transferOwnership",
      "outputs": [],
      "stateMutability": "nonpayable",
      "type": "function"
    },
    {
      "inputs": [
        {
          "internalType": "uint256",
          "name": "_id",
          "type": "uint256"
        }
      ],
      "name": "uri",
      "outputs": [
        {
          "internalType": "string",
          "name": "",
          "type": "string"
        }
      ],
      "stateMutability": "view",
      "type": "function"
    }
  ],
  "transactionHash": "0x9856bd2d7519c4c2864a4f72cbf785b77579840a97ef0f0f44f194b005a105e4",
  "args": [
    "CREA@ORs",
    "CR2NFT",
    "sdlfkjdsf",
    10,
    "0x7Bc2c104CcbC7144593a61CE9778B84FF09EdF26"
  ],
  "numDeployments": 1,
  "solcInputHash": "56ed2b3e597fcbf72ab80012e7234044",
  "bytecode": "0x6101406040526000600455600f805460ff191690553480156200002157600080fd5b506040516200316d3803806200316d83398101604081905262000044916200048b565b6040518060400160405280600f81526020016e2630bd3ca7232a16ab37bab1b432b960891b815250604051806040016040528060018152602001603160f81b81525060405180602001604052806000815250620000a781620001ef60201b60201c565b50620000b33362000208565b815160208084019190912082518383012060e08290526101008190524660a0818152604080517f8b73c3c69bb8fe3d512ecc4cf759cc79239f7b179b0ffacaa9a75d522b39400f81880181905281830187905260608201869052608082019490945230818401528151808203909301835260c00190528051940193909320919290916080523060c052610120525050600f805460ff191660011790555050600682905584516200016b9060079060208801906200030b565b508351620001819060089060208701906200030b565b50600980546001600160a01b0319166001600160a01b0383161790556040517f1d2cdeb916b6deaba04691992f0644f09c3074ecd87caa51ded4a31ca49e590a90620001d1903390869062000578565b60405180910390a1620001e4836200025a565b5050505050620005ff565b8051620002049060029060208401906200030b565b5050565b600380546001600160a01b038381166001600160a01b0319831681179093556040519116919082907f8be0079c531659141344cd1fd0a4f28419497f9722a3daafe3b4186f6b6457e090600090a35050565b6003546001600160a01b03163314620002b95760405162461bcd60e51b815260206004820181905260248201527f4f776e61626c653a2063616c6c6572206973206e6f7420746865206f776e6572604482015260640160405180910390fd5b8051620002ce9060059060208401906200030b565b507fd5ee5eaf65263bab5d569890714d123ad48a9e54409d35e71d374f3dd300bba081604051620003009190620005a6565b60405180910390a150565b8280546200031990620005c2565b90600052602060002090601f0160209004810192826200033d576000855562000388565b82601f106200035857805160ff191683800117855562000388565b8280016001018555821562000388579182015b82811115620003885782518255916020019190600101906200036b565b50620003969291506200039a565b5090565b5b808211156200039657600081556001016200039b565b634e487b7160e01b600052604160045260246000fd5b60005b83811015620003e4578181015183820152602001620003ca565b83811115620003f4576000848401525b50505050565b600082601f8301126200040c57600080fd5b81516001600160401b0380821115620004295762000429620003b1565b604051601f8301601f19908116603f01168101908282118183101715620004545762000454620003b1565b816040528381528660208588010111156200046e57600080fd5b62000481846020830160208901620003c7565b9695505050505050565b600080600080600060a08688031215620004a457600080fd5b85516001600160401b0380821115620004bc57600080fd5b620004ca89838a01620003fa565b96506020880151915080821115620004e157600080fd5b620004ef89838a01620003fa565b955060408801519150808211156200050657600080fd5b506200051588828901620003fa565b60608801516080890151919550935090506001600160a01b03811681146200053c57600080fd5b809150509295509295909350565b6000815180845262000564816020860160208601620003c7565b601f01601f19169290920160200192915050565b6001600160a01b03831681526040602082018190526000906200059e908301846200054a565b949350505050565b602081526000620005bb60208301846200054a565b9392505050565b600181811c90821680620005d757607f821691505b60208210811415620005f957634e487b7160e01b600052602260045260246000fd5b50919050565b60805160a05160c05160e0516101005161012051612b306200063d600039600050506000505060005050600050506000505060005050612b306000f3fe6080604052600436106101e25760003560e01c8063862440e211610102578063b390c0ab11610095578063e985e9c511610064578063e985e9c5146105e2578063f06e6c9c1461062b578063f242432a1461063e578063f2fde38b1461065e57600080fd5b8063b390c0ab14610559578063bd85b0391461056c578063d539139314610599578063e8a3d485146105cd57600080fd5b806399156843116100d157806399156843146104bf5780639e4c0141146104ec578063a22cb46514610519578063a6f400fa1461053957600080fd5b8063862440e2146104665780638da5cb5b14610479578063938e3d7b1461049757806395d89b41146104aa57600080fd5b8063449283941161017a578063715018a611610149578063715018a6146103f9578063830394f51461040e578063832efb5a146104235780638584fa461461043957600080fd5b806344928394146103495780634e1273f41461037f57806361aa8b00146103ac5780637029144c146103d957600080fd5b80631bcf3e07116101b65780631bcf3e071461028c578063282b5063146102ac5780632eb2c2d6146102d957806335a05ad5146102fb57600080fd5b8062fdd58e146101e757806301ffc9a71461021a57806306fdde031461024a5780630e89341c1461026c575b600080fd5b3480156101f357600080fd5b50610207610202366004611fdb565b61067e565b6040519081526020015b60405180910390f35b34801561022657600080fd5b5061023a61023536600461201b565b610715565b6040519015158152602001610211565b34801561025657600080fd5b5061025f610767565b604051610211919061209b565b34801561027857600080fd5b5061025f6102873660046120ae565b6107f5565b34801561029857600080fd5b506102076102a736600461218c565b6108fb565b3480156102b857600080fd5b506102076102c73660046120ae565b6000908152600c602052604090205490565b3480156102e557600080fd5b506102f96102f43660046122ae565b610e87565b005b34801561030757600080fd5b506103316103163660046120ae565b600a602052600090815260409020546001600160a01b031681565b6040516001600160a01b039091168152602001610211565b34801561035557600080fd5b506103316103643660046120ae565b6000908152600a60205260409020546001600160a01b031690565b34801561038b57600080fd5b5061039f61039a366004612357565b610ed3565b604051610211919061245c565b3480156103b857600080fd5b506102076103c73660046120ae565b600d6020526000908152604090205481565b3480156103e557600080fd5b506102f96103f436600461246f565b610ffc565b34801561040557600080fd5b506102f9611090565b34801561041a57600080fd5b5061025f6110c6565b34801561042f57600080fd5b5061020760045481565b34801561044557600080fd5b506102076104543660046120ae565b600c6020526000908152604090205481565b6102f96104743660046124c8565b61114c565b34801561048557600080fd5b506003546001600160a01b0316610331565b6102f96104a5366004612504565b61120d565b3480156104b657600080fd5b5061025f611285565b3480156104cb57600080fd5b506102076104da3660046120ae565b600b6020526000908152604090205481565b3480156104f857600080fd5b506102076105073660046120ae565b6000908152600d602052604090205490565b34801561052557600080fd5b506102f961053436600461254e565b611292565b34801561054557600080fd5b506102f9610554366004612585565b6112a1565b6102f96105673660046125cb565b611363565b34801561057857600080fd5b506102076105873660046120ae565b6000908152600b602052604090205490565b3480156105a557600080fd5b506102077f9f2df0fed2c77648de5860a4cc508cd0818c85b8b8a1ab4ceeef8d981c8956a681565b3480156105d957600080fd5b5061025f6113fc565b3480156105ee57600080fd5b5061023a6105fd3660046125ed565b6001600160a01b03918216600090815260016020908152604080832093909416825291909152205460ff1690565b6102f96106393660046122ae565b61148e565b34801561064a57600080fd5b506102f9610659366004612620565b6114d3565b34801561066a57600080fd5b506102f9610679366004612684565b61155a565b60006001600160a01b0383166106ef5760405162461bcd60e51b815260206004820152602b60248201527f455243313135353a2062616c616e636520717565727920666f7220746865207a60448201526a65726f206164647265737360a81b60648201526084015b60405180910390fd5b506000908152602081815260408083206001600160a01b03949094168352929052205490565b60006001600160e01b03198216636cdb3d1360e11b148061074657506001600160e01b031982166303a24d0760e21b145b8061076157506301ffc9a760e01b6001600160e01b03198316145b92915050565b600780546107749061269f565b80601f01602080910402602001604051908101604052809291908181526020018280546107a09061269f565b80156107ed5780601f106107c2576101008083540402835291602001916107ed565b820191906000526020600020905b8154815290600101906020018083116107d057829003601f168201915b505050505081565b6000818152600a60205260409020546060906001600160a01b031661085c5760405162461bcd60e51b815260206004820152601e60248201527f45524331313535237572693a204e4f4e4558495354454e545f544f4b454e000060448201526064016106e6565b6000828152600e6020526040812080546108759061269f565b80601f01602080910402602001604051908101604052809291908181526020018280546108a19061269f565b80156108ee5780601f106108c3576101008083540402835291602001916108ee565b820191906000526020600020905b8154815290600101906020018083116108d157829003601f168201915b5093979650505050505050565b6009546040516370a0823160e01b81523360048201526000916001600160a01b0316906370a0823190602401602060405180830381600087803b15801561094157600080fd5b505af1158015610955573d6000803e3d6000fd5b505050506040513d601f19601f8201168201806040525081019061097991906126da565b85106109bc5760405162461bcd60e51b8152602060048201526012602482015271696e73756666696369656e742066756e647360701b60448201526064016106e6565b6103e8861115610a1e5760405162461bcd60e51b815260206004820152602760248201527f496e697469616c20737570706c792063616e6e6f74206265206d6f72652074686044820152660616e20313030360cc1b60648201526084016106e6565b60065460045410610a715760405162461bcd60e51b815260206004820152601760248201527f466c7573686564206e667420746f74616c206c696d697400000000000000000060448201526064016106e6565b83610abe5760405162461bcd60e51b815260206004820152601760248201527f43616e206e6f74206d696e74205a65726f20636f756e7400000000000000000060448201526064016106e6565b6000888152600c6020526040902054610c2657858410610b395760405162461bcd60e51b815260206004820152603060248201527f596f752063616e206e6f74206d696e74206f766572207468616e20696e69746960448201526f185b0814dd5c1c1b1e4e88199a5c9cdd60821b60648201526084016106e6565b600480546000908152600b602090815260408083208a905583548352600a825280832080546001600160a01b0319166001600160a01b03881617905583548352600d909152902084905554610b8e908861114c565b610bab8960045486604051806020016040528060008152506115f5565b6004546000908152600c602052604081208054869290610bcc908490612709565b909155505060048054906000610be183612721565b91905055507f0cdae701ba22d312fc5289f8e5dcb104a74d66b544214e2f5d6c2c53c4e6f0db600454604051610c1991815260200190565b60405180910390a1610d28565b6000888152600b6020908152604080832054600c90925290912054610c4c908690612709565b10610cb65760405162461bcd60e51b815260206004820152603460248201527f596f752063616e206e6f74206d696e74206f766572207468616e20696e697469604482015273185b081cdd5c1c1b1e4e881b9bdd08199a5c9cdd60621b60648201526084016106e6565b610cd1898986604051806020016040528060008152506115f5565b6000888152600c602052604081208054869290610cef908490612709565b90915550506040518881527f0cdae701ba22d312fc5289f8e5dcb104a74d66b544214e2f5d6c2c53c4e6f0db9060200160405180910390a15b600954604051636eb1769f60e11b815233600482015230602482015286916001600160a01b03169063dd62ed3e90604401602060405180830381600087803b158015610d7357600080fd5b505af1158015610d87573d6000803e3d6000fd5b505050506040513d601f19601f82011682018060405250810190610dab91906126da565b1015610ded5760405162461bcd60e51b8152602060048201526011602482015270616c6c6f77616e6365206973206c65737360781b60448201526064016106e6565b6009546040516323b872dd60e01b81523360048201526001600160a01b03848116602483015260448201889052909116906323b872dd90606401602060405180830381600087803b158015610e4157600080fd5b505af1158015610e55573d6000803e3d6000fd5b505050506040513d601f19601f82011682018060405250810190610e79919061273c565b509698975050505050505050565b6001600160a01b038516331480610ea35750610ea385336105fd565b610ebf5760405162461bcd60e51b81526004016106e690612759565b610ecc85858585856116ff565b5050505050565b60608151835114610f385760405162461bcd60e51b815260206004820152602960248201527f455243313135353a206163636f756e747320616e6420696473206c656e677468604482015268040dad2e6dac2e8c6d60bb1b60648201526084016106e6565b600083516001600160401b03811115610f5357610f536120c7565b604051908082528060200260200182016040528015610f7c578160200160208202803683370190505b50905060005b8451811015610ff457610fc7858281518110610fa057610fa06127ab565b6020026020010151858381518110610fba57610fba6127ab565b602002602001015161067e565b828281518110610fd957610fd96127ab565b6020908102919091010152610fed81612721565b9050610f82565b509392505050565b600f5460ff16156110645760405162461bcd60e51b815260206004820152602c60248201527f45524331353520547261646561626c65206d757374206e6f7420626520636f6e60448201526b1cdd1c9d58dd1959081e595d60a21b60648201526084016106e6565b8151611077906007906020850190611f26565b50805161108b906008906020840190611f26565b505050565b6003546001600160a01b031633146110ba5760405162461bcd60e51b81526004016106e6906127c1565b6110c460006118dc565b565b600954604080516395d89b4160e01b815290516060926001600160a01b0316916395d89b41916004808301926000929190829003018186803b15801561110b57600080fd5b505afa15801561111f573d6000803e3d6000fd5b505050506040513d6000823e601f3d908101601f1916820160405261114791908101906127f6565b905090565b6000828152600a60205260409020546001600160a01b03166111b05760405162461bcd60e51b815260206004820152601e60248201527f45524331313535237572693a204e4f4e4558495354454e545f544f4b454e000060448201526064016106e6565b6000828152600e6020908152604090912082516111cf92840190611f26565b507f483621391b5e72d74eb03c7b5715531c486e326fb115ab3bcf34b133041854ce8282604051611201929190612877565b60405180910390a15050565b6003546001600160a01b031633146112375760405162461bcd60e51b81526004016106e6906127c1565b805161124a906005906020840190611f26565b507fd5ee5eaf65263bab5d569890714d123ad48a9e54409d35e71d374f3dd300bba08160405161127a919061209b565b60405180910390a150565b600880546107749061269f565b61129d33838361192e565b5050565b600083116112f15760405162461bcd60e51b815260206004820152601960248201527f43616e206e6f74207472616e73666572207a65726f204e46540000000000000060448201526064016106e6565b61130d82828686604051806020016040528060008152506114d3565b60408051858152602081018590526001600160a01b03848116828401528316606082015290517f0175694a85af06487c85f5a70828f4869e67481fd566a8c0316a88059d0f58739181900360800190a150505050565b6003546001600160a01b0316331461138d5760405162461bcd60e51b81526004016106e6906127c1565b6000828152600a60205260409020546001600160a01b03166113f15760405162461bcd60e51b815260206004820181905260248201527f4552433131353520236275726e3a204e4f4e4558495354454e545f544f4b454e60448201526064016106e6565b61129d338383611a0f565b60606005805461140b9061269f565b80601f01602080910402602001604051908101604052809291908181526020018280546114379061269f565b80156114845780601f1061145957610100808354040283529160200191611484565b820191906000526020600020905b81548152906001019060200180831161146757829003601f168201915b5050505050905090565b6001600160a01b0385163314806114aa57506114aa85336105fd565b6114c65760405162461bcd60e51b81526004016106e690612759565b610ecc8585858585610e87565b6001600160a01b0385163314806114ef57506114ef85336105fd565b61154d5760405162461bcd60e51b815260206004820152602960248201527f455243313135353a2063616c6c6572206973206e6f74206f776e6572206e6f7260448201526808185c1c1c9bdd995960ba1b60648201526084016106e6565b610ecc8585858585611b89565b6003546001600160a01b031633146115845760405162461bcd60e51b81526004016106e6906127c1565b6001600160a01b0381166115e95760405162461bcd60e51b815260206004820152602660248201527f4f776e61626c653a206e6577206f776e657220697320746865207a65726f206160448201526564647265737360d01b60648201526084016106e6565b6115f2816118dc565b50565b6001600160a01b0384166116555760405162461bcd60e51b815260206004820152602160248201527f455243313135353a206d696e7420746f20746865207a65726f206164647265736044820152607360f81b60648201526084016106e6565b3361166f8160008761166688611ca6565b610ecc88611ca6565b6000848152602081815260408083206001600160a01b03891684529091528120805485929061169f908490612709565b909155505060408051858152602081018590526001600160a01b0380881692600092918516917fc3d58168c5ae7397731d063d5bbf3d657854427343f4c083240f7aacaa2d0f62910160405180910390a4610ecc81600087878787611cf1565b81518351146117615760405162461bcd60e51b815260206004820152602860248201527f455243313135353a2069647320616e6420616d6f756e7473206c656e677468206044820152670dad2e6dac2e8c6d60c31b60648201526084016106e6565b6001600160a01b0384166117875760405162461bcd60e51b81526004016106e690612890565b3360005b845181101561186e5760008582815181106117a8576117a86127ab565b6020026020010151905060008583815181106117c6576117c66127ab565b602090810291909101810151600084815280835260408082206001600160a01b038e1683529093529190912054909150818110156118165760405162461bcd60e51b81526004016106e6906128d5565b6000838152602081815260408083206001600160a01b038e8116855292528083208585039055908b16825281208054849290611853908490612709565b925050819055505050508061186790612721565b905061178b565b50846001600160a01b0316866001600160a01b0316826001600160a01b03167f4a39dc06d4c0dbc64b70af90fd698a233a518aa5d07e595d983b8c0526c8f7fb87876040516118be92919061291f565b60405180910390a46118d4818787878787611e5c565b505050505050565b600380546001600160a01b038381166001600160a01b0319831681179093556040519116919082907f8be0079c531659141344cd1fd0a4f28419497f9722a3daafe3b4186f6b6457e090600090a35050565b816001600160a01b0316836001600160a01b031614156119a25760405162461bcd60e51b815260206004820152602960248201527f455243313135353a2073657474696e6720617070726f76616c20737461747573604482015268103337b91039b2b63360b91b60648201526084016106e6565b6001600160a01b03838116600081815260016020908152604080832094871680845294825291829020805460ff191686151590811790915591519182527f17307eab39ab6107e8899845ad3d59bd9653f200f220920489ca2b5937696c31910160405180910390a3505050565b6001600160a01b038316611a715760405162461bcd60e51b815260206004820152602360248201527f455243313135353a206275726e2066726f6d20746865207a65726f206164647260448201526265737360e81b60648201526084016106e6565b33611aa181856000611a8287611ca6565b611a8b87611ca6565b5050604080516020810190915260009052505050565b6000838152602081815260408083206001600160a01b038816845290915290205482811015611b1e5760405162461bcd60e51b8152602060048201526024808201527f455243313135353a206275726e20616d6f756e7420657863656564732062616c604482015263616e636560e01b60648201526084016106e6565b6000848152602081815260408083206001600160a01b03898116808652918452828520888703905582518981529384018890529092908616917fc3d58168c5ae7397731d063d5bbf3d657854427343f4c083240f7aacaa2d0f62910160405180910390a45050505050565b6001600160a01b038416611baf5760405162461bcd60e51b81526004016106e690612890565b33611bbf81878761166688611ca6565b6000848152602081815260408083206001600160a01b038a16845290915290205483811015611c005760405162461bcd60e51b81526004016106e6906128d5565b6000858152602081815260408083206001600160a01b038b8116855292528083208785039055908816825281208054869290611c3d908490612709565b909155505060408051868152602081018690526001600160a01b03808916928a821692918616917fc3d58168c5ae7397731d063d5bbf3d657854427343f4c083240f7aacaa2d0f62910160405180910390a4611c9d828888888888611cf1565b50505050505050565b60408051600180825281830190925260609160009190602080830190803683370190505090508281600081518110611ce057611ce06127ab565b602090810291909101015292915050565b6001600160a01b0384163b156118d45760405163f23a6e6160e01b81526001600160a01b0385169063f23a6e6190611d35908990899088908890889060040161294d565b602060405180830381600087803b158015611d4f57600080fd5b505af1925050508015611d7f575060408051601f3d908101601f19168201909252611d7c91810190612992565b60015b611e2c57611d8b6129af565b806308c379a01415611dc55750611da06129cb565b80611dab5750611dc7565b8060405162461bcd60e51b81526004016106e6919061209b565b505b60405162461bcd60e51b815260206004820152603460248201527f455243313135353a207472616e7366657220746f206e6f6e20455243313135356044820152732932b1b2b4bb32b91034b6b83632b6b2b73a32b960611b60648201526084016106e6565b6001600160e01b0319811663f23a6e6160e01b14611c9d5760405162461bcd60e51b81526004016106e690612a54565b6001600160a01b0384163b156118d45760405163bc197c8160e01b81526001600160a01b0385169063bc197c8190611ea09089908990889088908890600401612a9c565b602060405180830381600087803b158015611eba57600080fd5b505af1925050508015611eea575060408051601f3d908101601f19168201909252611ee791810190612992565b60015b611ef657611d8b6129af565b6001600160e01b0319811663bc197c8160e01b14611c9d5760405162461bcd60e51b81526004016106e690612a54565b828054611f329061269f565b90600052602060002090601f016020900481019282611f545760008555611f9a565b82601f10611f6d57805160ff1916838001178555611f9a565b82800160010185558215611f9a579182015b82811115611f9a578251825591602001919060010190611f7f565b50611fa6929150611faa565b5090565b5b80821115611fa65760008155600101611fab565b80356001600160a01b0381168114611fd657600080fd5b919050565b60008060408385031215611fee57600080fd5b611ff783611fbf565b946020939093013593505050565b6001600160e01b0319811681146115f257600080fd5b60006020828403121561202d57600080fd5b813561203881612005565b9392505050565b60005b8381101561205a578181015183820152602001612042565b83811115612069576000848401525b50505050565b6000815180845261208781602086016020860161203f565b601f01601f19169290920160200192915050565b602081526000612038602083018461206f565b6000602082840312156120c057600080fd5b5035919050565b634e487b7160e01b600052604160045260246000fd5b601f8201601f191681016001600160401b0381118282101715612102576121026120c7565b6040525050565b60006001600160401b03821115612122576121226120c7565b50601f01601f191660200190565b600082601f83011261214157600080fd5b813561214c81612109565b60405161215982826120dd565b82815285602084870101111561216e57600080fd5b82602086016020830137600092810160200192909252509392505050565b600080600080600080600080610100898b0312156121a957600080fd5b6121b289611fbf565b97506020890135965060408901356001600160401b038111156121d457600080fd5b6121e08b828c01612130565b965050606089013594506080890135935060a0890135925060c0890135915061220b60e08a01611fbf565b90509295985092959890939650565b60006001600160401b03821115612233576122336120c7565b5060051b60200190565b600082601f83011261224e57600080fd5b8135602061225b8261221a565b60405161226882826120dd565b83815260059390931b850182019282810191508684111561228857600080fd5b8286015b848110156122a3578035835291830191830161228c565b509695505050505050565b600080600080600060a086880312156122c657600080fd5b6122cf86611fbf565b94506122dd60208701611fbf565b935060408601356001600160401b03808211156122f957600080fd5b61230589838a0161223d565b9450606088013591508082111561231b57600080fd5b61232789838a0161223d565b9350608088013591508082111561233d57600080fd5b5061234a88828901612130565b9150509295509295909350565b6000806040838503121561236a57600080fd5b82356001600160401b038082111561238157600080fd5b818501915085601f83011261239557600080fd5b813560206123a28261221a565b6040516123af82826120dd565b83815260059390931b85018201928281019150898411156123cf57600080fd5b948201945b838610156123f4576123e586611fbf565b825294820194908201906123d4565b9650508601359250508082111561240a57600080fd5b506124178582860161223d565b9150509250929050565b600081518084526020808501945080840160005b8381101561245157815187529582019590820190600101612435565b509495945050505050565b6020815260006120386020830184612421565b6000806040838503121561248257600080fd5b82356001600160401b038082111561249957600080fd5b6124a586838701612130565b935060208501359150808211156124bb57600080fd5b5061241785828601612130565b600080604083850312156124db57600080fd5b8235915060208301356001600160401b038111156124f857600080fd5b61241785828601612130565b60006020828403121561251657600080fd5b81356001600160401b0381111561252c57600080fd5b61253884828501612130565b949350505050565b80151581146115f257600080fd5b6000806040838503121561256157600080fd5b61256a83611fbf565b9150602083013561257a81612540565b809150509250929050565b6000806000806080858703121561259b57600080fd5b84359350602085013592506125b260408601611fbf565b91506125c060608601611fbf565b905092959194509250565b600080604083850312156125de57600080fd5b50508035926020909101359150565b6000806040838503121561260057600080fd5b61260983611fbf565b915061261760208401611fbf565b90509250929050565b600080600080600060a0868803121561263857600080fd5b61264186611fbf565b945061264f60208701611fbf565b9350604086013592506060860135915060808601356001600160401b0381111561267857600080fd5b61234a88828901612130565b60006020828403121561269657600080fd5b61203882611fbf565b600181811c908216806126b357607f821691505b602082108114156126d457634e487b7160e01b600052602260045260246000fd5b50919050565b6000602082840312156126ec57600080fd5b5051919050565b634e487b7160e01b600052601160045260246000fd5b6000821982111561271c5761271c6126f3565b500190565b6000600019821415612735576127356126f3565b5060010190565b60006020828403121561274e57600080fd5b815161203881612540565b60208082526032908201527f455243313135353a207472616e736665722063616c6c6572206973206e6f74206040820152711bdddb995c881b9bdc88185c1c1c9bdd995960721b606082015260800190565b634e487b7160e01b600052603260045260246000fd5b6020808252818101527f4f776e61626c653a2063616c6c6572206973206e6f7420746865206f776e6572604082015260600190565b60006020828403121561280857600080fd5b81516001600160401b0381111561281e57600080fd5b8201601f8101841361282f57600080fd5b805161283a81612109565b60405161284782826120dd565b82815286602084860101111561285c57600080fd5b61286d83602083016020870161203f565b9695505050505050565b828152604060208201526000612538604083018461206f565b60208082526025908201527f455243313135353a207472616e7366657220746f20746865207a65726f206164604082015264647265737360d81b606082015260800190565b6020808252602a908201527f455243313135353a20696e73756666696369656e742062616c616e636520666f60408201526939103a3930b739b332b960b11b606082015260800190565b6040815260006129326040830185612421565b82810360208401526129448185612421565b95945050505050565b6001600160a01b03868116825285166020820152604081018490526060810183905260a0608082018190526000906129879083018461206f565b979650505050505050565b6000602082840312156129a457600080fd5b815161203881612005565b600060033d11156129c85760046000803e5060005160e01c5b90565b600060443d10156129d95790565b6040516003193d81016004833e81513d6001600160401b038160248401118184111715612a0857505050505090565b8285019150815181811115612a205750505050505090565b843d8701016020828501011115612a3a5750505050505090565b612a49602082860101876120dd565b509095945050505050565b60208082526028908201527f455243313135353a204552433131353552656365697665722072656a656374656040820152676420746f6b656e7360c01b606082015260800190565b6001600160a01b0386811682528516602082015260a060408201819052600090612ac890830186612421565b8281036060840152612ada8186612421565b90508281036080840152612aee818561206f565b9897505050505050505056fea26469706673582212204d54ab3f540fefee8ec44225d4542eb179f920cb5ecb9b26c1db089c73fd6a6964736f6c63430008090033",
  "devdoc": {
    "kind": "dev",
    "methods": {
      "balanceOf(address,uint256)": {
        "details": "See {IERC1155-balanceOf}. Requirements: - `account` cannot be the zero address."
      },
      "balanceOfBatch(address[],uint256[])": {
        "details": "See {IERC1155-balanceOfBatch}. Requirements: - `accounts` and `ids` must have the same length."
      },
      "isApprovedForAll(address,address)": {
        "details": "See {IERC1155-isApprovedForAll}."
      },
      "owner()": {
        "details": "Returns the address of the current owner."
      },
      "renounceOwnership()": {
        "details": "Leaves the contract without owner. It will not be possible to call `onlyOwner` functions anymore. Can only be called by the current owner. NOTE: Renouncing ownership will leave the contract without an owner, thereby removing any functionality that is only available to the owner."
      },
      "safeBatchTransferFrom(address,address,uint256[],uint256[],bytes)": {
        "details": "See {IERC1155-safeBatchTransferFrom}."
      },
      "safeTransferFrom(address,address,uint256,uint256,bytes)": {
        "details": "See {IERC1155-safeTransferFrom}."
      },
      "setApprovalForAll(address,bool)": {
        "details": "See {IERC1155-setApprovalForAll}."
      },
      "supportsInterface(bytes4)": {
        "details": "See {IERC165-supportsInterface}."
      },
      "transferOwnership(address)": {
        "details": "Transfers ownership of the contract to a new account (`newOwner`). Can only be called by the current owner."
      }
    },
    "version": 1
  },
  "userdoc": {
    "kind": "user",
    "methods": {},
    "version": 1
  },
  "storageLayout": {
    "storage": [
      {
        "astId": 130,
        "contract": "contracts/Crea2orsNFT_v5.1.sol:Crea2orsNFT",
        "label": "_balances",
        "offset": 0,
        "slot": "0",
        "type": "t_mapping(t_uint256,t_mapping(t_address,t_uint256))"
      },
      {
        "astId": 136,
        "contract": "contracts/Crea2orsNFT_v5.1.sol:Crea2orsNFT",
        "label": "_operatorApprovals",
        "offset": 0,
        "slot": "1",
        "type": "t_mapping(t_address,t_mapping(t_address,t_bool))"
      },
      {
        "astId": 138,
        "contract": "contracts/Crea2orsNFT_v5.1.sol:Crea2orsNFT",
        "label": "_uri",
        "offset": 0,
        "slot": "2",
        "type": "t_string_storage"
      },
      {
        "astId": 7,
        "contract": "contracts/Crea2orsNFT_v5.1.sol:Crea2orsNFT",
        "label": "_owner",
        "offset": 0,
        "slot": "3",
        "type": "t_address"
      },
      {
        "astId": 2550,
        "contract": "contracts/Crea2orsNFT_v5.1.sol:Crea2orsNFT",
        "label": "_currentTokenID",
        "offset": 0,
        "slot": "4",
        "type": "t_uint256"
      },
      {
        "astId": 2552,
        "contract": "contracts/Crea2orsNFT_v5.1.sol:Crea2orsNFT",
        "label": "_contractURI",
        "offset": 0,
        "slot": "5",
        "type": "t_string_storage"
      },
      {
        "astId": 2554,
        "contract": "contracts/Crea2orsNFT_v5.1.sol:Crea2orsNFT",
        "label": "tokenLimit",
        "offset": 0,
        "slot": "6",
        "type": "t_uint256"
      },
      {
        "astId": 2556,
        "contract": "contracts/Crea2orsNFT_v5.1.sol:Crea2orsNFT",
        "label": "name",
        "offset": 0,
        "slot": "7",
        "type": "t_string_storage"
      },
      {
        "astId": 2558,
        "contract": "contracts/Crea2orsNFT_v5.1.sol:Crea2orsNFT",
        "label": "symbol",
        "offset": 0,
        "slot": "8",
        "type": "t_string_storage"
      },
      {
        "astId": 2561,
        "contract": "contracts/Crea2orsNFT_v5.1.sol:Crea2orsNFT",
        "label": "cr2Contract",
        "offset": 0,
        "slot": "9",
        "type": "t_contract(ICrea2Crypto)2541"
      },
      {
        "astId": 2570,
        "contract": "contracts/Crea2orsNFT_v5.1.sol:Crea2orsNFT",
        "label": "royaltyAddresses",
        "offset": 0,
        "slot": "10",
        "type": "t_mapping(t_uint256,t_address)"
      },
      {
        "astId": 2574,
        "contract": "contracts/Crea2orsNFT_v5.1.sol:Crea2orsNFT",
        "label": "initialSupplies",
        "offset": 0,
        "slot": "11",
        "type": "t_mapping(t_uint256,t_uint256)"
      },
      {
        "astId": 2578,
        "contract": "contracts/Crea2orsNFT_v5.1.sol:Crea2orsNFT",
        "label": "curMintedSupplies",
        "offset": 0,
        "slot": "12",
        "type": "t_mapping(t_uint256,t_uint256)"
      },
      {
        "astId": 2582,
        "contract": "contracts/Crea2orsNFT_v5.1.sol:Crea2orsNFT",
        "label": "royaltyFees",
        "offset": 0,
        "slot": "13",
        "type": "t_mapping(t_uint256,t_uint256)"
      },
      {
        "astId": 2586,
        "contract": "contracts/Crea2orsNFT_v5.1.sol:Crea2orsNFT",
        "label": "metaDataUris",
        "offset": 0,
        "slot": "14",
        "type": "t_mapping(t_uint256,t_string_storage)"
      },
      {
        "astId": 2589,
        "contract": "contracts/Crea2orsNFT_v5.1.sol:Crea2orsNFT",
        "label": "constructed",
        "offset": 0,
        "slot": "15",
        "type": "t_bool"
      }
    ],
    "types": {
      "t_address": {
        "encoding": "inplace",
        "label": "address",
        "numberOfBytes": "20"
      },
      "t_bool": {
        "encoding": "inplace",
        "label": "bool",
        "numberOfBytes": "1"
      },
      "t_contract(ICrea2Crypto)2541": {
        "encoding": "inplace",
        "label": "contract ICrea2Crypto",
        "numberOfBytes": "20"
      },
      "t_mapping(t_address,t_bool)": {
        "encoding": "mapping",
        "key": "t_address",
        "label": "mapping(address => bool)",
        "numberOfBytes": "32",
        "value": "t_bool"
      },
      "t_mapping(t_address,t_mapping(t_address,t_bool))": {
        "encoding": "mapping",
        "key": "t_address",
        "label": "mapping(address => mapping(address => bool))",
        "numberOfBytes": "32",
        "value": "t_mapping(t_address,t_bool)"
      },
      "t_mapping(t_address,t_uint256)": {
        "encoding": "mapping",
        "key": "t_address",
        "label": "mapping(address => uint256)",
        "numberOfBytes": "32",
        "value": "t_uint256"
      },
      "t_mapping(t_uint256,t_address)": {
        "encoding": "mapping",
        "key": "t_uint256",
        "label": "mapping(uint256 => address)",
        "numberOfBytes": "32",
        "value": "t_address"
      },
      "t_mapping(t_uint256,t_mapping(t_address,t_uint256))": {
        "encoding": "mapping",
        "key": "t_uint256",
        "label": "mapping(uint256 => mapping(address => uint256))",
        "numberOfBytes": "32",
        "value": "t_mapping(t_address,t_uint256)"
      },
      "t_mapping(t_uint256,t_string_storage)": {
        "encoding": "mapping",
        "key": "t_uint256",
        "label": "mapping(uint256 => string)",
        "numberOfBytes": "32",
        "value": "t_string_storage"
      },
      "t_mapping(t_uint256,t_uint256)": {
        "encoding": "mapping",
        "key": "t_uint256",
        "label": "mapping(uint256 => uint256)",
        "numberOfBytes": "32",
        "value": "t_uint256"
      },
      "t_string_storage": {
        "encoding": "bytes",
        "label": "string",
        "numberOfBytes": "32"
      },
      "t_uint256": {
        "encoding": "inplace",
        "label": "uint256",
        "numberOfBytes": "32"
      }
    }
  }
}