{
  "address": "0x235Fcd6587d7b06368d5Aa1fb5627E205850946b",
  "abi": [
    {
      "inputs": [],
      "stateMutability": "nonpayable",
      "type": "constructor"
    },
    {
      "anonymous": false,
      "inputs": [
        {
          "indexed": true,
          "internalType": "address",
          "name": "owner",
          "type": "address"
        },
        {
          "indexed": true,
          "internalType": "address",
          "name": "spender",
          "type": "address"
        },
        {
          "indexed": false,
          "internalType": "uint256",
          "name": "value",
          "type": "uint256"
        }
      ],
      "name": "Approval",
      "type": "event"
    },
    {
      "anonymous": false,
      "inputs": [
        {
          "indexed": true,
          "internalType": "address",
          "name": "previousOwner",
          "type": "address"
        },
        {
          "indexed": true,
          "internalType": "address",
          "name": "newOwner",
          "type": "address"
        }
      ],
      "name": "OwnershipTransferred",
      "type": "event"
    },
    {
      "anonymous": false,
      "inputs": [
        {
          "indexed": true,
          "internalType": "address",
          "name": "from",
          "type": "address"
        },
        {
          "indexed": true,
          "internalType": "address",
          "name": "to",
          "type": "address"
        },
        {
          "indexed": false,
          "internalType": "uint256",
          "name": "value",
          "type": "uint256"
        }
      ],
      "name": "Transfer",
      "type": "event"
    },
    {
      "inputs": [],
      "name": "_totalSupply",
      "outputs": [
        {
          "internalType": "uint256",
          "name": "",
          "type": "uint256"
        }
      ],
      "stateMutability": "view",
      "type": "function"
    },
    {
      "inputs": [
        {
          "internalType": "address",
          "name": "tokenOwner",
          "type": "address"
        },
        {
          "internalType": "address",
          "name": "spender",
          "type": "address"
        }
      ],
      "name": "allowance",
      "outputs": [
        {
          "internalType": "uint256",
          "name": "remaining",
          "type": "uint256"
        }
      ],
      "stateMutability": "view",
      "type": "function"
    },
    {
      "inputs": [
        {
          "internalType": "address",
          "name": "",
          "type": "address"
        },
        {
          "internalType": "address",
          "name": "",
          "type": "address"
        }
      ],
      "name": "allowed",
      "outputs": [
        {
          "internalType": "uint256",
          "name": "",
          "type": "uint256"
        }
      ],
      "stateMutability": "view",
      "type": "function"
    },
    {
      "inputs": [
        {
          "internalType": "address",
          "name": "spender",
          "type": "address"
        },
        {
          "internalType": "uint256",
          "name": "tokens",
          "type": "uint256"
        }
      ],
      "name": "approve",
      "outputs": [
        {
          "internalType": "bool",
          "name": "success",
          "type": "bool"
        }
      ],
      "stateMutability": "nonpayable",
      "type": "function"
    },
    {
      "inputs": [
        {
          "internalType": "address",
          "name": "tokenOwner",
          "type": "address"
        }
      ],
      "name": "balanceOf",
      "outputs": [
        {
          "internalType": "uint256",
          "name": "balance",
          "type": "uint256"
        }
      ],
      "stateMutability": "view",
      "type": "function"
    },
    {
      "inputs": [
        {
          "internalType": "address",
          "name": "",
          "type": "address"
        }
      ],
      "name": "balances",
      "outputs": [
        {
          "internalType": "uint256",
          "name": "",
          "type": "uint256"
        }
      ],
      "stateMutability": "view",
      "type": "function"
    },
    {
      "inputs": [],
      "name": "decimals",
      "outputs": [
        {
          "internalType": "uint8",
          "name": "",
          "type": "uint8"
        }
      ],
      "stateMutability": "view",
      "type": "function"
    },
    {
      "inputs": [
        {
          "internalType": "address",
          "name": "",
          "type": "address"
        }
      ],
      "name": "holders",
      "outputs": [
        {
          "internalType": "uint256",
          "name": "lockupAmount",
          "type": "uint256"
        },
        {
          "internalType": "uint256",
          "name": "unlockTime",
          "type": "uint256"
        },
        {
          "internalType": "bool",
          "name": "bCreated",
          "type": "bool"
        }
      ],
      "stateMutability": "view",
      "type": "function"
    },
    {
      "inputs": [
        {
          "internalType": "uint256",
          "name": "amount",
          "type": "uint256"
        }
      ],
      "name": "mint",
      "outputs": [
        {
          "internalType": "bool",
          "name": "",
          "type": "bool"
        }
      ],
      "stateMutability": "nonpayable",
      "type": "function"
    },
    {
      "inputs": [],
      "name": "name",
      "outputs": [
        {
          "internalType": "string",
          "name": "",
          "type": "string"
        }
      ],
      "stateMutability": "view",
      "type": "function"
    },
    {
      "inputs": [],
      "name": "owner",
      "outputs": [
        {
          "internalType": "address",
          "name": "",
          "type": "address"
        }
      ],
      "stateMutability": "view",
      "type": "function"
    },
    {
      "inputs": [],
      "name": "renounceOwnership",
      "outputs": [],
      "stateMutability": "nonpayable",
      "type": "function"
    },
    {
      "inputs": [
        {
          "internalType": "uint256",
          "name": "a",
          "type": "uint256"
        },
        {
          "internalType": "uint256",
          "name": "b",
          "type": "uint256"
        }
      ],
      "name": "safeAdd",
      "outputs": [
        {
          "internalType": "uint256",
          "name": "c",
          "type": "uint256"
        }
      ],
      "stateMutability": "pure",
      "type": "function"
    },
    {
      "inputs": [
        {
          "internalType": "uint256",
          "name": "a",
          "type": "uint256"
        },
        {
          "internalType": "uint256",
          "name": "b",
          "type": "uint256"
        }
      ],
      "name": "safeDiv",
      "outputs": [
        {
          "internalType": "uint256",
          "name": "c",
          "type": "uint256"
        }
      ],
      "stateMutability": "pure",
      "type": "function"
    },
    {
      "inputs": [
        {
          "internalType": "uint256",
          "name": "a",
          "type": "uint256"
        },
        {
          "internalType": "uint256",
          "name": "b",
          "type": "uint256"
        }
      ],
      "name": "safeMul",
      "outputs": [
        {
          "internalType": "uint256",
          "name": "c",
          "type": "uint256"
        }
      ],
      "stateMutability": "pure",
      "type": "function"
    },
    {
      "inputs": [
        {
          "internalType": "uint256",
          "name": "a",
          "type": "uint256"
        },
        {
          "internalType": "uint256",
          "name": "b",
          "type": "uint256"
        }
      ],
      "name": "safeSub",
      "outputs": [
        {
          "internalType": "uint256",
          "name": "c",
          "type": "uint256"
        }
      ],
      "stateMutability": "pure",
      "type": "function"
    },
    {
      "inputs": [],
      "name": "symbol",
      "outputs": [
        {
          "internalType": "string",
          "name": "",
          "type": "string"
        }
      ],
      "stateMutability": "view",
      "type": "function"
    },
    {
      "inputs": [],
      "name": "totalSupply",
      "outputs": [
        {
          "internalType": "uint256",
          "name": "",
          "type": "uint256"
        }
      ],
      "stateMutability": "view",
      "type": "function"
    },
    {
      "inputs": [
        {
          "internalType": "address",
          "name": "to",
          "type": "address"
        },
        {
          "internalType": "uint256",
          "name": "tokens",
          "type": "uint256"
        }
      ],
      "name": "transfer",
      "outputs": [
        {
          "internalType": "bool",
          "name": "success",
          "type": "bool"
        }
      ],
      "stateMutability": "nonpayable",
      "type": "function"
    },
    {
      "inputs": [
        {
          "internalType": "address",
          "name": "from",
          "type": "address"
        },
        {
          "internalType": "address",
          "name": "to",
          "type": "address"
        },
        {
          "internalType": "uint256",
          "name": "tokens",
          "type": "uint256"
        }
      ],
      "name": "transferFrom",
      "outputs": [
        {
          "internalType": "bool",
          "name": "success",
          "type": "bool"
        }
      ],
      "stateMutability": "nonpayable",
      "type": "function"
    },
    {
      "inputs": [
        {
          "internalType": "address",
          "name": "newOwner",
          "type": "address"
        }
      ],
      "name": "transferOwnership",
      "outputs": [],
      "stateMutability": "nonpayable",
      "type": "function"
    }
  ],
  "transactionHash": "0x675445533e9c3f7ca5ede0e67a6998c5070347cc6d65c26178a5f6b1ab861e58",
  "args": [],
  "numDeployments": 2,
  "solcInputHash": "6ef22e0cb51ebff452d777dcae3375b4",
  "bytecode": "0x6080604052600880546001600160a01b03199081167326810913499451a31a9e17c0b021b326c0a73c9417909155600980548216735aad91b0c9d866acec2768dcf500b38537f856fb179055600a80548216734b1d5a0e5c2940a43b8881fd7c739c4f47b784c6179055600b805490911673cdd6d090efd7f5cbf52e40cc49b09a5d368b99231790553480156200009557600080fd5b50620000a13362000197565b6040805180820190915260088082526743726561326f727360c01b6020909201918252620000d291600191620001e7565b506040805180820190915260038082526221a91960e91b6020909201918252620000ff91600291620001e7565b506003805460ff19166009179055678ac7230489e8000060045533600081815260056020526040808220676f05b59d3b200000908190556008546001600160a01b03168352818320671bc16d674ec8000090559051909291907fddf252ad1be2c89b69c2b068fc378daa952ba7f163c4a11628f55a4df523b3ef90620001889085815260200190565b60405180910390a350620002ca565b600080546001600160a01b038381166001600160a01b0319831681178455604051919092169283917f8be0079c531659141344cd1fd0a4f28419497f9722a3daafe3b4186f6b6457e09190a35050565b828054620001f5906200028d565b90600052602060002090601f01602090048101928262000219576000855562000264565b82601f106200023457805160ff191683800117855562000264565b8280016001018555821562000264579182015b828111156200026457825182559160200191906001019062000247565b506200027292915062000276565b5090565b5b8082111562000272576000815560010162000277565b600181811c90821680620002a257607f821691505b60208210811415620002c457634e487b7160e01b600052602260045260246000fd5b50919050565b61113480620002da6000396000f3fe608060405234801561001057600080fd5b50600436106101375760003560e01c8063715018a6116100b8578063a9059cbb1161007c578063a9059cbb146102e4578063b5931f7c146102f7578063d05c78da1461030a578063dd62ed3e1461031d578063e6cb901314610356578063f2fde38b1461036957600080fd5b8063715018a6146102915780638da5cb5b1461029b57806395d89b41146102b6578063a0712d68146102be578063a293d1e8146102d157600080fd5b806327e235e3116100ff57806327e235e3146101f5578063313ce567146102155780633eaaf86b146102345780635c6581651461023d57806370a082311461026857600080fd5b806306fdde031461013c578063095ea7b31461015a57806318160ddd1461017d57806318a5bbdc1461019357806323b872dd146101e2575b600080fd5b61014461037c565b6040516101519190610e50565b60405180910390f35b61016d610168366004610ebc565b61040a565b6040519015158152602001610151565b610185610477565b604051908152602001610151565b6101c56101a1366004610ee6565b60076020526000908152604090208054600182015460029092015490919060ff1683565b604080519384526020840192909252151590820152606001610151565b61016d6101f0366004610f01565b6104b5565b610185610203366004610ee6565b60056020526000908152604090205481565b6003546102229060ff1681565b60405160ff9091168152602001610151565b61018560045481565b61018561024b366004610f3d565b600660209081526000928352604080842090915290825290205481565b610185610276366004610ee6565b6001600160a01b031660009081526005602052604090205490565b6102996107ef565b005b6000546040516001600160a01b039091168152602001610151565b610144610825565b61016d6102cc366004610f70565b610832565b6101856102df366004610f89565b610870565b61016d6102f2366004610ebc565b6108c3565b610185610305366004610f89565b610b91565b610185610318366004610f89565b610ba9565b61018561032b366004610f3d565b6001600160a01b03918216600090815260066020908152604080832093909416825291909152205490565b610185610364366004610f89565b610bd5565b610299610377366004610ee6565b610c23565b6001805461038990610fab565b80601f01602080910402602001604051908101604052809291908181526020018280546103b590610fab565b80156104025780601f106103d757610100808354040283529160200191610402565b820191906000526020600020905b8154815290600101906020018083116103e557829003601f168201915b505050505081565b3360008181526006602090815260408083206001600160a01b038716808552925280832085905551919290917f8c5be1e5ebec7d5bd14f71427d1e84f3dd0314c0f7b2291e5b200ac8c7c3b925906104659086815260200190565b60405180910390a35060015b92915050565b600080805260056020527f05b8ccbb9d4d8fb16ea74ce3c29a41f1b461fbdaff4714a0d9a8eb05499746bc546004546104b09190610ffc565b905090565b6001600160a01b0383166000908152600560205260408120548211156105135760405162461bcd60e51b815260206004820152600e60248201526d416d6f756e74204578636565642160901b60448201526064015b60405180910390fd5b6001600160a01b038416600090815260076020908152604080832054600590925290912054839161054391610ffc565b101561059e576001600160a01b0384166000908152600760205260409020600101544210156105845760405162461bcd60e51b815260040161050a90611013565b6001600160a01b0384166000908152600760205260408120555b6001600160a01b03831660009081526007602052604090206002015460ff1661062f5760646105ce836019611070565b6105d8919061108f565b6001600160a01b0384166000908152600760205260409020556105ff426303c267006110b1565b6001600160a01b0384166000908152600760205260409020600180820192909255600201805460ff191690911790555b6001600160a01b0384166000908152600560205260409020546106529083610870565b6001600160a01b03851660009081526005602090815260408083209390935560068152828220338352905220546106899083610870565b6001600160a01b03851660009081526006602090815260408083203384529091528120919091556103e86106bf8461039d611070565b6106c9919061108f565b905060006103e86106db856019611070565b6106e5919061108f565b6001600160a01b03861660009081526005602052604090205490915061070b9083610bd5565b6001600160a01b0380871660009081526005602052604080822093909355600a549091168152205461073d9082610bd5565b600a546001600160a01b0390811660009081526005602052604080822093909355600954909116815220546107729082610bd5565b6009546001600160a01b031660009081526005602052604090205561079681610cbe565b846001600160a01b0316866001600160a01b03167fddf252ad1be2c89b69c2b068fc378daa952ba7f163c4a11628f55a4df523b3ef846040516107db91815260200190565b60405180910390a350600195945050505050565b6000546001600160a01b031633146108195760405162461bcd60e51b815260040161050a906110c9565b6108236000610d1b565b565b6002805461038990610fab565b600080546001600160a01b0316331461085d5760405162461bcd60e51b815260040161050a906110c9565b6108673383610d6b565b5060015b919050565b6000828211156108b25760405162461bcd60e51b815260206004820152600d60248201526c29b0b332a9bab11032b93937b960991b604482015260640161050a565b6108bc8284610ffc565b9392505050565b336000818152600560205260408120549091908311156109165760405162461bcd60e51b815260206004820152600e60248201526d416d6f756e74204578636565642160901b604482015260640161050a565b6001600160a01b038116600090815260076020908152604080832054600590925290912054849161094691610ffc565b10156109a1576001600160a01b0381166000908152600760205260409020600101544210156109875760405162461bcd60e51b815260040161050a90611013565b6001600160a01b0381166000908152600760205260408120555b6001600160a01b03841660009081526007602052604090206002015460ff16610a325760646109d1846019611070565b6109db919061108f565b6001600160a01b038516600090815260076020526040902055610a02426303c267006110b1565b6001600160a01b0385166000908152600760205260409020600180820192909255600201805460ff191690911790555b33600090815260056020526040902054610a4c9084610870565b336000908152600560205260408120919091556103e8610a6e8561039d611070565b610a78919061108f565b905060006103e8610a8a866019611070565b610a94919061108f565b6001600160a01b038716600090815260056020526040902054909150610aba9083610bd5565b6001600160a01b0380881660009081526005602052604080822093909355600a5490911681522054610aec9082610bd5565b600a546001600160a01b039081166000908152600560205260408082209390935560095490911681522054610b219082610bd5565b6009546001600160a01b0316600090815260056020526040902055610b4581610cbe565b6040518281526001600160a01b0387169033907fddf252ad1be2c89b69c2b068fc378daa952ba7f163c4a11628f55a4df523b3ef9060200160405180910390a350600195945050505050565b6000808211610b9f57600080fd5b6108bc828461108f565b6000610bb58284611070565b9050821580610bcc575081610bca848361108f565b145b61047157600080fd5b6000610be182846110b1565b9050828110156104715760405162461bcd60e51b815260206004820152600d60248201526c29b0b332a0b2321032b93937b960991b604482015260640161050a565b6000546001600160a01b03163314610c4d5760405162461bcd60e51b815260040161050a906110c9565b6001600160a01b038116610cb25760405162461bcd60e51b815260206004820152602660248201527f4f776e61626c653a206e6577206f776e657220697320746865207a65726f206160448201526564647265737360d01b606482015260840161050a565b610cbb81610d1b565b50565b600b546001600160a01b0316600090815260056020526040902054610ce39082610bd5565b600b546001600160a01b031660009081526005602052604081209190915560048054839290610d13908490610ffc565b909155505050565b600080546001600160a01b038381166001600160a01b0319831681178455604051919092169283917f8be0079c531659141344cd1fd0a4f28419497f9722a3daafe3b4186f6b6457e09190a35050565b6001600160a01b038216610dc15760405162461bcd60e51b815260206004820152601f60248201527f42524332303a206d696e7420746f20746865207a65726f206164647265737300604482015260640161050a565b610dcd60045482610bd5565b6004556001600160a01b038216600090815260056020526040902054610df39082610bd5565b6001600160a01b0383166000818152600560205260408082209390935591519091907fddf252ad1be2c89b69c2b068fc378daa952ba7f163c4a11628f55a4df523b3ef90610e449085815260200190565b60405180910390a35050565b600060208083528351808285015260005b81811015610e7d57858101830151858201604001528201610e61565b81811115610e8f576000604083870101525b50601f01601f1916929092016040019392505050565b80356001600160a01b038116811461086b57600080fd5b60008060408385031215610ecf57600080fd5b610ed883610ea5565b946020939093013593505050565b600060208284031215610ef857600080fd5b6108bc82610ea5565b600080600060608486031215610f1657600080fd5b610f1f84610ea5565b9250610f2d60208501610ea5565b9150604084013590509250925092565b60008060408385031215610f5057600080fd5b610f5983610ea5565b9150610f6760208401610ea5565b90509250929050565b600060208284031215610f8257600080fd5b5035919050565b60008060408385031215610f9c57600080fd5b50508035926020909101359150565b600181811c90821680610fbf57607f821691505b60208210811415610fe057634e487b7160e01b600052602260045260246000fd5b50919050565b634e487b7160e01b600052601160045260246000fd5b60008282101561100e5761100e610fe6565b500390565b60208082526039908201527f596f752063616e20756e6c6f636b20746f6b656e73206166746572203220796560408201527f6172732066726f6d20696e697469616c206d696e7454696d6500000000000000606082015260800190565b600081600019048311821515161561108a5761108a610fe6565b500290565b6000826110ac57634e487b7160e01b600052601260045260246000fd5b500490565b600082198211156110c4576110c4610fe6565b500190565b6020808252818101527f4f776e61626c653a2063616c6c6572206973206e6f7420746865206f776e657260408201526060019056fea2646970667358221220ad7826794f1358e6b43635ab5775a03c14e011141db1191a4eab99dc2a55d9fb64736f6c63430008090033",
  "devdoc": {
    "kind": "dev",
    "methods": {
      "owner()": {
        "details": "Returns the address of the current owner."
      },
      "renounceOwnership()": {
        "details": "Leaves the contract without owner. It will not be possible to call `onlyOwner` functions anymore. Can only be called by the current owner. NOTE: Renouncing ownership will leave the contract without an owner, thereby removing any functionality that is only available to the owner."
      },
      "totalSupply()": {
        "details": "Returns the amount of tokens in existence."
      },
      "transferOwnership(address)": {
        "details": "Transfers ownership of the contract to a new account (`newOwner`). Can only be called by the current owner."
      }
    },
    "version": 1
  },
  "userdoc": {
    "kind": "user",
    "methods": {
      "constructor": {
        "notice": "Constrctor function Initializes contract with initial supply tokens to the creator of the contract"
      }
    },
    "version": 1
  },
  "storageLayout": {
    "storage": [
      {
        "astId": 197,
        "contract": "contracts/Crea2ors.sol:Crea2ors",
        "label": "_owner",
        "offset": 0,
        "slot": "0",
        "type": "t_address"
      },
      {
        "astId": 301,
        "contract": "contracts/Crea2ors.sol:Crea2ors",
        "label": "name",
        "offset": 0,
        "slot": "1",
        "type": "t_string_storage"
      },
      {
        "astId": 303,
        "contract": "contracts/Crea2ors.sol:Crea2ors",
        "label": "symbol",
        "offset": 0,
        "slot": "2",
        "type": "t_string_storage"
      },
      {
        "astId": 305,
        "contract": "contracts/Crea2ors.sol:Crea2ors",
        "label": "decimals",
        "offset": 0,
        "slot": "3",
        "type": "t_uint8"
      },
      {
        "astId": 307,
        "contract": "contracts/Crea2ors.sol:Crea2ors",
        "label": "_totalSupply",
        "offset": 0,
        "slot": "4",
        "type": "t_uint256"
      },
      {
        "astId": 318,
        "contract": "contracts/Crea2ors.sol:Crea2ors",
        "label": "balances",
        "offset": 0,
        "slot": "5",
        "type": "t_mapping(t_address,t_uint256)"
      },
      {
        "astId": 324,
        "contract": "contracts/Crea2ors.sol:Crea2ors",
        "label": "allowed",
        "offset": 0,
        "slot": "6",
        "type": "t_mapping(t_address,t_mapping(t_address,t_uint256))"
      },
      {
        "astId": 329,
        "contract": "contracts/Crea2ors.sol:Crea2ors",
        "label": "holders",
        "offset": 0,
        "slot": "7",
        "type": "t_mapping(t_address,t_struct(holder)314_storage)"
      },
      {
        "astId": 332,
        "contract": "contracts/Crea2ors.sol:Crea2ors",
        "label": "_rewardPoolAddress",
        "offset": 0,
        "slot": "8",
        "type": "t_address"
      },
      {
        "astId": 335,
        "contract": "contracts/Crea2ors.sol:Crea2ors",
        "label": "_developmentAddress",
        "offset": 0,
        "slot": "9",
        "type": "t_address"
      },
      {
        "astId": 338,
        "contract": "contracts/Crea2ors.sol:Crea2ors",
        "label": "_MKTAddress",
        "offset": 0,
        "slot": "10",
        "type": "t_address"
      },
      {
        "astId": 341,
        "contract": "contracts/Crea2ors.sol:Crea2ors",
        "label": "_burnAddress",
        "offset": 0,
        "slot": "11",
        "type": "t_address"
      }
    ],
    "types": {
      "t_address": {
        "encoding": "inplace",
        "label": "address",
        "numberOfBytes": "20"
      },
      "t_bool": {
        "encoding": "inplace",
        "label": "bool",
        "numberOfBytes": "1"
      },
      "t_mapping(t_address,t_mapping(t_address,t_uint256))": {
        "encoding": "mapping",
        "key": "t_address",
        "label": "mapping(address => mapping(address => uint256))",
        "numberOfBytes": "32",
        "value": "t_mapping(t_address,t_uint256)"
      },
      "t_mapping(t_address,t_struct(holder)314_storage)": {
        "encoding": "mapping",
        "key": "t_address",
        "label": "mapping(address => struct Crea2ors.holder)",
        "numberOfBytes": "32",
        "value": "t_struct(holder)314_storage"
      },
      "t_mapping(t_address,t_uint256)": {
        "encoding": "mapping",
        "key": "t_address",
        "label": "mapping(address => uint256)",
        "numberOfBytes": "32",
        "value": "t_uint256"
      },
      "t_string_storage": {
        "encoding": "bytes",
        "label": "string",
        "numberOfBytes": "32"
      },
      "t_struct(holder)314_storage": {
        "encoding": "inplace",
        "label": "struct Crea2ors.holder",
        "members": [
          {
            "astId": 309,
            "contract": "contracts/Crea2ors.sol:Crea2ors",
            "label": "lockupAmount",
            "offset": 0,
            "slot": "0",
            "type": "t_uint256"
          },
          {
            "astId": 311,
            "contract": "contracts/Crea2ors.sol:Crea2ors",
            "label": "unlockTime",
            "offset": 0,
            "slot": "1",
            "type": "t_uint256"
          },
          {
            "astId": 313,
            "contract": "contracts/Crea2ors.sol:Crea2ors",
            "label": "bCreated",
            "offset": 0,
            "slot": "2",
            "type": "t_bool"
          }
        ],
        "numberOfBytes": "96"
      },
      "t_uint256": {
        "encoding": "inplace",
        "label": "uint256",
        "numberOfBytes": "32"
      },
      "t_uint8": {
        "encoding": "inplace",
        "label": "uint8",
        "numberOfBytes": "1"
      }
    }
  }
}