{
  "address": "0x32743FF17571AcFcf759d849C93d93f06C10ed9b",
  "abi": [
    {
      "inputs": [
        {
          "internalType": "address",
          "name": "tokenAddress",
          "type": "address"
        }
      ],
      "stateMutability": "nonpayable",
      "type": "constructor"
    },
    {
      "inputs": [
        {
          "internalType": "address",
          "name": "newAddress",
          "type": "address"
        }
      ],
      "name": "addCollection",
      "outputs": [],
      "stateMutability": "nonpayable",
      "type": "function"
    },
    {
      "inputs": [
        {
          "internalType": "address",
          "name": "",
          "type": "address"
        }
      ],
      "name": "collections",
      "outputs": [
        {
          "internalType": "contract ICrea2orsNFT",
          "name": "",
          "type": "address"
        }
      ],
      "stateMutability": "view",
      "type": "function"
    },
    {
      "inputs": [
        {
          "internalType": "address",
          "name": "collectionAddress",
          "type": "address"
        },
        {
          "internalType": "address",
          "name": "from",
          "type": "address"
        },
        {
          "internalType": "address",
          "name": "to",
          "type": "address"
        },
        {
          "internalType": "uint256",
          "name": "id",
          "type": "uint256"
        },
        {
          "internalType": "uint256",
          "name": "amount",
          "type": "uint256"
        },
        {
          "internalType": "uint256",
          "name": "fund",
          "type": "uint256"
        }
      ],
      "name": "transferNFT",
      "outputs": [],
      "stateMutability": "nonpayable",
      "type": "function"
    }
  ],
  "transactionHash": "0xcc569663dab822015c906f0003ceb4400bef1bcfa986cb7a5a5d6774f8b02daf",
  "args": [
    "0x235Fcd6587d7b06368d5Aa1fb5627E205850946b"
  ],
  "numDeployments": 2,
  "solcInputHash": "a87bb97d4c110177ef574d78a1b74eee",
  "bytecode": "0x608060405234801561001057600080fd5b5060405161067238038061067283398101604081905261002f91610054565b600180546001600160a01b0319166001600160a01b0392909216919091179055610084565b60006020828403121561006657600080fd5b81516001600160a01b038116811461007d57600080fd5b9392505050565b6105df806100936000396000f3fe608060405234801561001057600080fd5b50600436106100415760003560e01c806343add2e6146100465780635d6f49601461008b578063a174e77a146100a0575b600080fd5b61006f61005436600461047c565b6000602081905290815260409020546001600160a01b031681565b6040516001600160a01b03909116815260200160405180910390f35b61009e6100993660046104a0565b6100d8565b005b61009e6100ae36600461047c565b6001600160a01b0316600081815260208190526040902080546001600160a01b0319169091179055565b6001546040516370a0823160e01b81523360048201526001600160a01b03909116906370a0823190602401602060405180830381600087803b15801561011d57600080fd5b505af1158015610131573d6000803e3d6000fd5b505050506040513d601f19601f820116820180604052508101906101559190610505565b81106101a75760405162461bcd60e51b815260206004820152601a60248201527f496e73756666696369656e742066756e64206f66206275796572000000000000604482015260640160405180910390fd5b6001600160a01b03868116600090815260208190526040808220549051639e4c014160e01b8152600481018790529192606492911690639e4c014190602401602060405180830381600087803b15801561020057600080fd5b505af1158015610214573d6000803e3d6000fd5b505050506040513d601f19601f820116820180604052508101906102389190610505565b6102429084610534565b61024c9190610553565b6001546001600160a01b0389811660009081526020819052604090819020549051631124a0e560e21b815260048101899052939450918116926323b872dd9289921690634492839490602401602060405180830381600087803b1580156102b257600080fd5b505af11580156102c6573d6000803e3d6000fd5b505050506040513d601f19601f820116820180604052508101906102ea9190610575565b6040516001600160e01b031960e085901b1681526001600160a01b0392831660048201529116602482015260448101849052606401600060405180830381600087803b15801561033957600080fd5b505af115801561034d573d6000803e3d6000fd5b50506001546001600160a01b031691506323b872dd905086886103708587610592565b6040516001600160e01b031960e086901b1681526001600160a01b0393841660048201529290911660248301526044820152606401600060405180830381600087803b1580156103bf57600080fd5b505af11580156103d3573d6000803e3d6000fd5b505050506001600160a01b038781166000908152602081905260409081902054905163537a007d60e11b815260048101879052602481018690528883166044820152878316606482015291169063a6f400fa90608401600060405180830381600087803b15801561044357600080fd5b505af1158015610457573d6000803e3d6000fd5b5050505050505050505050565b6001600160a01b038116811461047957600080fd5b50565b60006020828403121561048e57600080fd5b813561049981610464565b9392505050565b60008060008060008060c087890312156104b957600080fd5b86356104c481610464565b955060208701356104d481610464565b945060408701356104e481610464565b959894975094956060810135955060808101359460a0909101359350915050565b60006020828403121561051757600080fd5b5051919050565b634e487b7160e01b600052601160045260246000fd5b600081600019048311821515161561054e5761054e61051e565b500290565b60008261057057634e487b7160e01b600052601260045260246000fd5b500490565b60006020828403121561058757600080fd5b815161049981610464565b6000828210156105a4576105a461051e565b50039056fea2646970667358221220bb9ba2875a4b8bc74da9c7f43ce97badc816b3143a201bdaa05aafdd892f58b264736f6c63430008090033",
  "devdoc": {
    "kind": "dev",
    "methods": {},
    "version": 1
  },
  "userdoc": {
    "kind": "user",
    "methods": {},
    "version": 1
  },
  "storageLayout": {
    "storage": [
      {
        "astId": 63,
        "contract": "contracts/Crea2orsManager.sol:Crea2orsManager",
        "label": "collections",
        "offset": 0,
        "slot": "0",
        "type": "t_mapping(t_address,t_contract(ICrea2orsNFT)27)"
      },
      {
        "astId": 66,
        "contract": "contracts/Crea2orsManager.sol:Crea2orsManager",
        "label": "cr2Contract",
        "offset": 0,
        "slot": "1",
        "type": "t_contract(ICrea2Crypto)58"
      }
    ],
    "types": {
      "t_address": {
        "encoding": "inplace",
        "label": "address",
        "numberOfBytes": "20"
      },
      "t_contract(ICrea2Crypto)58": {
        "encoding": "inplace",
        "label": "contract ICrea2Crypto",
        "numberOfBytes": "20"
      },
      "t_contract(ICrea2orsNFT)27": {
        "encoding": "inplace",
        "label": "contract ICrea2orsNFT",
        "numberOfBytes": "20"
      },
      "t_mapping(t_address,t_contract(ICrea2orsNFT)27)": {
        "encoding": "mapping",
        "key": "t_address",
        "label": "mapping(address => contract ICrea2orsNFT)",
        "numberOfBytes": "32",
        "value": "t_contract(ICrea2orsNFT)27"
      }
    }
  }
}