{
  "address": "0x487DA355339131E5F881144B15aD46FB31d4F83C",
  "abi": [
    {
      "inputs": [
        {
          "internalType": "string",
          "name": "name_",
          "type": "string"
        },
        {
          "internalType": "string",
          "name": "symbol_",
          "type": "string"
        },
        {
          "internalType": "string",
          "name": "contractURI_",
          "type": "string"
        },
        {
          "internalType": "uint256",
          "name": "totalLimit_",
          "type": "uint256"
        },
        {
          "internalType": "address",
          "name": "cr2ContractAddress_",
          "type": "address"
        }
      ],
      "stateMutability": "nonpayable",
      "type": "constructor"
    },
    {
      "anonymous": false,
      "inputs": [
        {
          "indexed": true,
          "internalType": "address",
          "name": "account",
          "type": "address"
        },
        {
          "indexed": true,
          "internalType": "address",
          "name": "operator",
          "type": "address"
        },
        {
          "indexed": false,
          "internalType": "bool",
          "name": "approved",
          "type": "bool"
        }
      ],
      "name": "ApprovalForAll",
      "type": "event"
    },
    {
      "anonymous": false,
      "inputs": [
        {
          "indexed": false,
          "internalType": "address",
          "name": "",
          "type": "address"
        },
        {
          "indexed": false,
          "internalType": "string",
          "name": "",
          "type": "string"
        }
      ],
      "name": "ContractDeployed",
      "type": "event"
    },
    {
      "anonymous": false,
      "inputs": [
        {
          "indexed": false,
          "internalType": "string",
          "name": "",
          "type": "string"
        }
      ],
      "name": "ContractURIChanged",
      "type": "event"
    },
    {
      "anonymous": false,
      "inputs": [
        {
          "indexed": false,
          "internalType": "uint256",
          "name": "",
          "type": "uint256"
        }
      ],
      "name": "LazyMinted",
      "type": "event"
    },
    {
      "anonymous": false,
      "inputs": [
        {
          "indexed": false,
          "internalType": "uint256",
          "name": "",
          "type": "uint256"
        },
        {
          "indexed": false,
          "internalType": "uint256",
          "name": "",
          "type": "uint256"
        },
        {
          "indexed": false,
          "internalType": "address",
          "name": "",
          "type": "address"
        },
        {
          "indexed": false,
          "internalType": "address",
          "name": "",
          "type": "address"
        }
      ],
      "name": "NFTTransfered",
      "type": "event"
    },
    {
      "anonymous": false,
      "inputs": [
        {
          "indexed": true,
          "internalType": "address",
          "name": "previousOwner",
          "type": "address"
        },
        {
          "indexed": true,
          "internalType": "address",
          "name": "newOwner",
          "type": "address"
        }
      ],
      "name": "OwnershipTransferred",
      "type": "event"
    },
    {
      "anonymous": false,
      "inputs": [
        {
          "indexed": false,
          "internalType": "uint256",
          "name": "",
          "type": "uint256"
        },
        {
          "indexed": false,
          "internalType": "string",
          "name": "",
          "type": "string"
        }
      ],
      "name": "TokenURIChanged",
      "type": "event"
    },
    {
      "anonymous": false,
      "inputs": [
        {
          "indexed": true,
          "internalType": "address",
          "name": "operator",
          "type": "address"
        },
        {
          "indexed": true,
          "internalType": "address",
          "name": "from",
          "type": "address"
        },
        {
          "indexed": true,
          "internalType": "address",
          "name": "to",
          "type": "address"
        },
        {
          "indexed": false,
          "internalType": "uint256[]",
          "name": "ids",
          "type": "uint256[]"
        },
        {
          "indexed": false,
          "internalType": "uint256[]",
          "name": "values",
          "type": "uint256[]"
        }
      ],
      "name": "TransferBatch",
      "type": "event"
    },
    {
      "anonymous": false,
      "inputs": [
        {
          "indexed": true,
          "internalType": "address",
          "name": "operator",
          "type": "address"
        },
        {
          "indexed": true,
          "internalType": "address",
          "name": "from",
          "type": "address"
        },
        {
          "indexed": true,
          "internalType": "address",
          "name": "to",
          "type": "address"
        },
        {
          "indexed": false,
          "internalType": "uint256",
          "name": "id",
          "type": "uint256"
        },
        {
          "indexed": false,
          "internalType": "uint256",
          "name": "value",
          "type": "uint256"
        }
      ],
      "name": "TransferSingle",
      "type": "event"
    },
    {
      "anonymous": false,
      "inputs": [
        {
          "indexed": false,
          "internalType": "string",
          "name": "value",
          "type": "string"
        },
        {
          "indexed": true,
          "internalType": "uint256",
          "name": "id",
          "type": "uint256"
        }
      ],
      "name": "URI",
      "type": "event"
    },
    {
      "inputs": [],
      "name": "MINTER_ROLE",
      "outputs": [
        {
          "internalType": "bytes32",
          "name": "",
          "type": "bytes32"
        }
      ],
      "stateMutability": "view",
      "type": "function"
    },
    {
      "inputs": [],
      "name": "_currentTokenID",
      "outputs": [
        {
          "internalType": "uint256",
          "name": "",
          "type": "uint256"
        }
      ],
      "stateMutability": "view",
      "type": "function"
    },
    {
      "inputs": [
        {
          "internalType": "address",
          "name": "account",
          "type": "address"
        },
        {
          "internalType": "uint256",
          "name": "id",
          "type": "uint256"
        }
      ],
      "name": "balanceOf",
      "outputs": [
        {
          "internalType": "uint256",
          "name": "",
          "type": "uint256"
        }
      ],
      "stateMutability": "view",
      "type": "function"
    },
    {
      "inputs": [
        {
          "internalType": "address[]",
          "name": "accounts",
          "type": "address[]"
        },
        {
          "internalType": "uint256[]",
          "name": "ids",
          "type": "uint256[]"
        }
      ],
      "name": "balanceOfBatch",
      "outputs": [
        {
          "internalType": "uint256[]",
          "name": "",
          "type": "uint256[]"
        }
      ],
      "stateMutability": "view",
      "type": "function"
    },
    {
      "inputs": [
        {
          "internalType": "address",
          "name": "from",
          "type": "address"
        },
        {
          "internalType": "address",
          "name": "to",
          "type": "address"
        },
        {
          "internalType": "uint256[]",
          "name": "ids",
          "type": "uint256[]"
        },
        {
          "internalType": "uint256[]",
          "name": "amounts",
          "type": "uint256[]"
        },
        {
          "internalType": "bytes",
          "name": "data",
          "type": "bytes"
        }
      ],
      "name": "batchTransferFrom",
      "outputs": [],
      "stateMutability": "payable",
      "type": "function"
    },
    {
      "inputs": [
        {
          "internalType": "uint256",
          "name": "_id",
          "type": "uint256"
        },
        {
          "internalType": "uint256",
          "name": "_amount",
          "type": "uint256"
        }
      ],
      "name": "burn",
      "outputs": [],
      "stateMutability": "payable",
      "type": "function"
    },
    {
      "inputs": [],
      "name": "contractURI",
      "outputs": [
        {
          "internalType": "string",
          "name": "",
          "type": "string"
        }
      ],
      "stateMutability": "view",
      "type": "function"
    },
    {
      "inputs": [
        {
          "internalType": "uint256",
          "name": "",
          "type": "uint256"
        }
      ],
      "name": "curMintedSupplies",
      "outputs": [
        {
          "internalType": "uint256",
          "name": "",
          "type": "uint256"
        }
      ],
      "stateMutability": "view",
      "type": "function"
    },
    {
      "inputs": [
        {
          "internalType": "uint256",
          "name": "tokenID",
          "type": "uint256"
        }
      ],
      "name": "getCurMintedSupply",
      "outputs": [
        {
          "internalType": "uint256",
          "name": "",
          "type": "uint256"
        }
      ],
      "stateMutability": "view",
      "type": "function"
    },
    {
      "inputs": [
        {
          "internalType": "uint256",
          "name": "_id",
          "type": "uint256"
        }
      ],
      "name": "getRoyaltyAddress",
      "outputs": [
        {
          "internalType": "address",
          "name": "",
          "type": "address"
        }
      ],
      "stateMutability": "view",
      "type": "function"
    },
    {
      "inputs": [
        {
          "internalType": "uint256",
          "name": "_id",
          "type": "uint256"
        }
      ],
      "name": "getRoyaltyFee",
      "outputs": [
        {
          "internalType": "uint256",
          "name": "",
          "type": "uint256"
        }
      ],
      "stateMutability": "view",
      "type": "function"
    },
    {
      "inputs": [
        {
          "internalType": "string",
          "name": "_name",
          "type": "string"
        },
        {
          "internalType": "string",
          "name": "_symbol",
          "type": "string"
        }
      ],
      "name": "init",
      "outputs": [],
      "stateMutability": "nonpayable",
      "type": "function"
    },
    {
      "inputs": [
        {
          "internalType": "uint256",
          "name": "",
          "type": "uint256"
        }
      ],
      "name": "initialSupplies",
      "outputs": [
        {
          "internalType": "uint256",
          "name": "",
          "type": "uint256"
        }
      ],
      "stateMutability": "view",
      "type": "function"
    },
    {
      "inputs": [
        {
          "internalType": "address",
          "name": "account",
          "type": "address"
        },
        {
          "internalType": "address",
          "name": "operator",
          "type": "address"
        }
      ],
      "name": "isApprovedForAll",
      "outputs": [
        {
          "internalType": "bool",
          "name": "",
          "type": "bool"
        }
      ],
      "stateMutability": "view",
      "type": "function"
    },
    {
      "inputs": [],
      "name": "name",
      "outputs": [
        {
          "internalType": "string",
          "name": "",
          "type": "string"
        }
      ],
      "stateMutability": "view",
      "type": "function"
    },
    {
      "inputs": [],
      "name": "owner",
      "outputs": [
        {
          "internalType": "address",
          "name": "",
          "type": "address"
        }
      ],
      "stateMutability": "view",
      "type": "function"
    },
    {
      "inputs": [
        {
          "internalType": "address",
          "name": "redeemer",
          "type": "address"
        },
        {
          "internalType": "uint256",
          "name": "tokenId",
          "type": "uint256"
        },
        {
          "internalType": "string",
          "name": "metaUri",
          "type": "string"
        },
        {
          "internalType": "uint256",
          "name": "initialSupply",
          "type": "uint256"
        },
        {
          "internalType": "uint256",
          "name": "mintPrice",
          "type": "uint256"
        },
        {
          "internalType": "uint256",
          "name": "mintCount",
          "type": "uint256"
        },
        {
          "internalType": "uint256",
          "name": "royaltyFee",
          "type": "uint256"
        },
        {
          "internalType": "address",
          "name": "royaltyAddress",
          "type": "address"
        }
      ],
      "name": "redeem",
      "outputs": [
        {
          "internalType": "uint256",
          "name": "",
          "type": "uint256"
        }
      ],
      "stateMutability": "payable",
      "type": "function"
    },
    {
      "inputs": [],
      "name": "redeemtest",
      "outputs": [
        {
          "internalType": "string",
          "name": "",
          "type": "string"
        }
      ],
      "stateMutability": "view",
      "type": "function"
    },
    {
      "inputs": [],
      "name": "renounceOwnership",
      "outputs": [],
      "stateMutability": "nonpayable",
      "type": "function"
    },
    {
      "inputs": [
        {
          "internalType": "uint256",
          "name": "",
          "type": "uint256"
        }
      ],
      "name": "royaltyAddresses",
      "outputs": [
        {
          "internalType": "address",
          "name": "",
          "type": "address"
        }
      ],
      "stateMutability": "view",
      "type": "function"
    },
    {
      "inputs": [
        {
          "internalType": "uint256",
          "name": "",
          "type": "uint256"
        }
      ],
      "name": "royaltyFees",
      "outputs": [
        {
          "internalType": "uint256",
          "name": "",
          "type": "uint256"
        }
      ],
      "stateMutability": "view",
      "type": "function"
    },
    {
      "inputs": [
        {
          "internalType": "address",
          "name": "from",
          "type": "address"
        },
        {
          "internalType": "address",
          "name": "to",
          "type": "address"
        },
        {
          "internalType": "uint256[]",
          "name": "ids",
          "type": "uint256[]"
        },
        {
          "internalType": "uint256[]",
          "name": "amounts",
          "type": "uint256[]"
        },
        {
          "internalType": "bytes",
          "name": "data",
          "type": "bytes"
        }
      ],
      "name": "safeBatchTransferFrom",
      "outputs": [],
      "stateMutability": "nonpayable",
      "type": "function"
    },
    {
      "inputs": [
        {
          "internalType": "address",
          "name": "from",
          "type": "address"
        },
        {
          "internalType": "address",
          "name": "to",
          "type": "address"
        },
        {
          "internalType": "uint256",
          "name": "id",
          "type": "uint256"
        },
        {
          "internalType": "uint256",
          "name": "amount",
          "type": "uint256"
        },
        {
          "internalType": "bytes",
          "name": "data",
          "type": "bytes"
        }
      ],
      "name": "safeTransferFrom",
      "outputs": [],
      "stateMutability": "nonpayable",
      "type": "function"
    },
    {
      "inputs": [
        {
          "internalType": "address",
          "name": "operator",
          "type": "address"
        },
        {
          "internalType": "bool",
          "name": "approved",
          "type": "bool"
        }
      ],
      "name": "setApprovalForAll",
      "outputs": [],
      "stateMutability": "nonpayable",
      "type": "function"
    },
    {
      "inputs": [
        {
          "internalType": "string",
          "name": "contractURI_",
          "type": "string"
        }
      ],
      "name": "setContractURI",
      "outputs": [],
      "stateMutability": "payable",
      "type": "function"
    },
    {
      "inputs": [
        {
          "internalType": "uint256",
          "name": "_id",
          "type": "uint256"
        },
        {
          "internalType": "string",
          "name": "_uri",
          "type": "string"
        }
      ],
      "name": "setURI",
      "outputs": [],
      "stateMutability": "payable",
      "type": "function"
    },
    {
      "inputs": [
        {
          "internalType": "bytes4",
          "name": "interfaceId",
          "type": "bytes4"
        }
      ],
      "name": "supportsInterface",
      "outputs": [
        {
          "internalType": "bool",
          "name": "",
          "type": "bool"
        }
      ],
      "stateMutability": "view",
      "type": "function"
    },
    {
      "inputs": [],
      "name": "symbol",
      "outputs": [
        {
          "internalType": "string",
          "name": "",
          "type": "string"
        }
      ],
      "stateMutability": "view",
      "type": "function"
    },
    {
      "inputs": [
        {
          "internalType": "uint256",
          "name": "_id",
          "type": "uint256"
        }
      ],
      "name": "totalSupply",
      "outputs": [
        {
          "internalType": "uint256",
          "name": "",
          "type": "uint256"
        }
      ],
      "stateMutability": "view",
      "type": "function"
    },
    {
      "inputs": [
        {
          "internalType": "uint256",
          "name": "_id",
          "type": "uint256"
        },
        {
          "internalType": "uint256",
          "name": "_amount",
          "type": "uint256"
        },
        {
          "internalType": "address",
          "name": "from",
          "type": "address"
        },
        {
          "internalType": "address",
          "name": "to",
          "type": "address"
        }
      ],
      "name": "transferNFT",
      "outputs": [],
      "stateMutability": "nonpayable",
      "type": "function"
    },
    {
      "inputs": [
        {
          "internalType": "address",
          "name": "newOwner",
          "type": "address"
        }
      ],
      "name": "transferOwnership",
      "outputs": [],
      "stateMutability": "nonpayable",
      "type": "function"
    },
    {
      "inputs": [
        {
          "internalType": "uint256",
          "name": "_id",
          "type": "uint256"
        }
      ],
      "name": "uri",
      "outputs": [
        {
          "internalType": "string",
          "name": "",
          "type": "string"
        }
      ],
      "stateMutability": "view",
      "type": "function"
    }
  ],
  "transactionHash": "0xa39c719baff58c191b899f8dc66294b99698a9e29f3bed5d8c5435d9ab4bbc70",
  "args": [
    "CREA@ORs",
    "CR2NFT",
    "sdlfkjdsf",
    10,
    "0xe0E09B0f3789150f3EF364a3e8C394c6a909128E"
  ],
  "numDeployments": 1,
  "solcInputHash": "38fca45a15f2e7da4d793f68ee45f662",
  "bytecode": "0x6101406040526000600455600f805460ff191690553480156200002157600080fd5b50604051620031603803806200316083398101604081905262000044916200048b565b6040518060400160405280600f81526020016e2630bd3ca7232a16ab37bab1b432b960891b815250604051806040016040528060018152602001603160f81b81525060405180602001604052806000815250620000a781620001ef60201b60201c565b50620000b33362000208565b815160208084019190912082518383012060e08290526101008190524660a0818152604080517f8b73c3c69bb8fe3d512ecc4cf759cc79239f7b179b0ffacaa9a75d522b39400f81880181905281830187905260608201869052608082019490945230818401528151808203909301835260c00190528051940193909320919290916080523060c052610120525050600f805460ff191660011790555050600682905584516200016b9060079060208801906200030b565b508351620001819060089060208701906200030b565b50600980546001600160a01b0319166001600160a01b0383161790556040517f1d2cdeb916b6deaba04691992f0644f09c3074ecd87caa51ded4a31ca49e590a90620001d1903390869062000578565b60405180910390a1620001e4836200025a565b5050505050620005ff565b8051620002049060029060208401906200030b565b5050565b600380546001600160a01b038381166001600160a01b0319831681179093556040519116919082907f8be0079c531659141344cd1fd0a4f28419497f9722a3daafe3b4186f6b6457e090600090a35050565b6003546001600160a01b03163314620002b95760405162461bcd60e51b815260206004820181905260248201527f4f776e61626c653a2063616c6c6572206973206e6f7420746865206f776e6572604482015260640160405180910390fd5b8051620002ce9060059060208401906200030b565b507fd5ee5eaf65263bab5d569890714d123ad48a9e54409d35e71d374f3dd300bba081604051620003009190620005a6565b60405180910390a150565b8280546200031990620005c2565b90600052602060002090601f0160209004810192826200033d576000855562000388565b82601f106200035857805160ff191683800117855562000388565b8280016001018555821562000388579182015b82811115620003885782518255916020019190600101906200036b565b50620003969291506200039a565b5090565b5b808211156200039657600081556001016200039b565b634e487b7160e01b600052604160045260246000fd5b60005b83811015620003e4578181015183820152602001620003ca565b83811115620003f4576000848401525b50505050565b600082601f8301126200040c57600080fd5b81516001600160401b0380821115620004295762000429620003b1565b604051601f8301601f19908116603f01168101908282118183101715620004545762000454620003b1565b816040528381528660208588010111156200046e57600080fd5b62000481846020830160208901620003c7565b9695505050505050565b600080600080600060a08688031215620004a457600080fd5b85516001600160401b0380821115620004bc57600080fd5b620004ca89838a01620003fa565b96506020880151915080821115620004e157600080fd5b620004ef89838a01620003fa565b955060408801519150808211156200050657600080fd5b506200051588828901620003fa565b60608801516080890151919550935090506001600160a01b03811681146200053c57600080fd5b809150509295509295909350565b6000815180845262000564816020860160208601620003c7565b601f01601f19169290920160200192915050565b6001600160a01b03831681526040602082018190526000906200059e908301846200054a565b949350505050565b602081526000620005bb60208301846200054a565b9392505050565b600181811c90821680620005d757607f821691505b60208210811415620005f957634e487b7160e01b600052602260045260246000fd5b50919050565b60805160a05160c05160e0516101005161012051612b236200063d600039600050506000505060005050600050506000505060005050612b236000f3fe6080604052600436106101e25760003560e01c8063862440e211610102578063b390c0ab11610095578063e985e9c511610064578063e985e9c5146105d5578063f06e6c9c1461061e578063f242432a14610631578063f2fde38b1461065157600080fd5b8063b390c0ab1461054c578063bd85b0391461055f578063d53913931461058c578063e8a3d485146105c057600080fd5b806399156843116100d157806399156843146104b25780639e4c0141146104df578063a22cb4651461050c578063a6f400fa1461052c57600080fd5b8063862440e2146104595780638da5cb5b1461046c578063938e3d7b1461048a57806395d89b411461049d57600080fd5b8063449283941161017a578063715018a611610149578063715018a6146103ec578063830394f514610401578063832efb5a146104165780638584fa461461042c57600080fd5b8063449283941461033c5780634e1273f41461037257806361aa8b001461039f5780637029144c146103cc57600080fd5b80631bcf3e07116101b65780631bcf3e071461028c578063282b50631461029f5780632eb2c2d6146102cc57806335a05ad5146102ee57600080fd5b8062fdd58e146101e757806301ffc9a71461021a57806306fdde031461024a5780630e89341c1461026c575b600080fd5b3480156101f357600080fd5b50610207610202366004611fce565b610671565b6040519081526020015b60405180910390f35b34801561022657600080fd5b5061023a61023536600461200e565b610708565b6040519015158152602001610211565b34801561025657600080fd5b5061025f61075a565b604051610211919061208e565b34801561027857600080fd5b5061025f6102873660046120a1565b6107e8565b61020761029a36600461217f565b6108ee565b3480156102ab57600080fd5b506102076102ba3660046120a1565b6000908152600c602052604090205490565b3480156102d857600080fd5b506102ec6102e73660046122a1565b610e7a565b005b3480156102fa57600080fd5b506103246103093660046120a1565b600a602052600090815260409020546001600160a01b031681565b6040516001600160a01b039091168152602001610211565b34801561034857600080fd5b506103246103573660046120a1565b6000908152600a60205260409020546001600160a01b031690565b34801561037e57600080fd5b5061039261038d36600461234a565b610ec6565b604051610211919061244f565b3480156103ab57600080fd5b506102076103ba3660046120a1565b600d6020526000908152604090205481565b3480156103d857600080fd5b506102ec6103e7366004612462565b610fef565b3480156103f857600080fd5b506102ec611083565b34801561040d57600080fd5b5061025f6110b9565b34801561042257600080fd5b5061020760045481565b34801561043857600080fd5b506102076104473660046120a1565b600c6020526000908152604090205481565b6102ec6104673660046124bb565b61113f565b34801561047857600080fd5b506003546001600160a01b0316610324565b6102ec6104983660046124f7565b611200565b3480156104a957600080fd5b5061025f611278565b3480156104be57600080fd5b506102076104cd3660046120a1565b600b6020526000908152604090205481565b3480156104eb57600080fd5b506102076104fa3660046120a1565b6000908152600d602052604090205490565b34801561051857600080fd5b506102ec610527366004612541565b611285565b34801561053857600080fd5b506102ec610547366004612578565b611294565b6102ec61055a3660046125be565b611356565b34801561056b57600080fd5b5061020761057a3660046120a1565b6000908152600b602052604090205490565b34801561059857600080fd5b506102077f9f2df0fed2c77648de5860a4cc508cd0818c85b8b8a1ab4ceeef8d981c8956a681565b3480156105cc57600080fd5b5061025f6113ef565b3480156105e157600080fd5b5061023a6105f03660046125e0565b6001600160a01b03918216600090815260016020908152604080832093909416825291909152205460ff1690565b6102ec61062c3660046122a1565b611481565b34801561063d57600080fd5b506102ec61064c366004612613565b6114c6565b34801561065d57600080fd5b506102ec61066c366004612677565b61154d565b60006001600160a01b0383166106e25760405162461bcd60e51b815260206004820152602b60248201527f455243313135353a2062616c616e636520717565727920666f7220746865207a60448201526a65726f206164647265737360a81b60648201526084015b60405180910390fd5b506000908152602081815260408083206001600160a01b03949094168352929052205490565b60006001600160e01b03198216636cdb3d1360e11b148061073957506001600160e01b031982166303a24d0760e21b145b8061075457506301ffc9a760e01b6001600160e01b03198316145b92915050565b6007805461076790612692565b80601f016020809104026020016040519081016040528092919081815260200182805461079390612692565b80156107e05780601f106107b5576101008083540402835291602001916107e0565b820191906000526020600020905b8154815290600101906020018083116107c357829003601f168201915b505050505081565b6000818152600a60205260409020546060906001600160a01b031661084f5760405162461bcd60e51b815260206004820152601e60248201527f45524331313535237572693a204e4f4e4558495354454e545f544f4b454e000060448201526064016106d9565b6000828152600e60205260408120805461086890612692565b80601f016020809104026020016040519081016040528092919081815260200182805461089490612692565b80156108e15780601f106108b6576101008083540402835291602001916108e1565b820191906000526020600020905b8154815290600101906020018083116108c457829003601f168201915b5093979650505050505050565b6009546040516370a0823160e01b81523360048201526000916001600160a01b0316906370a0823190602401602060405180830381600087803b15801561093457600080fd5b505af1158015610948573d6000803e3d6000fd5b505050506040513d601f19601f8201168201806040525081019061096c91906126cd565b85106109af5760405162461bcd60e51b8152602060048201526012602482015271696e73756666696369656e742066756e647360701b60448201526064016106d9565b6103e8861115610a115760405162461bcd60e51b815260206004820152602760248201527f496e697469616c20737570706c792063616e6e6f74206265206d6f72652074686044820152660616e20313030360cc1b60648201526084016106d9565b60065460045410610a645760405162461bcd60e51b815260206004820152601760248201527f466c7573686564206e667420746f74616c206c696d697400000000000000000060448201526064016106d9565b83610ab15760405162461bcd60e51b815260206004820152601760248201527f43616e206e6f74206d696e74205a65726f20636f756e7400000000000000000060448201526064016106d9565b6000888152600c6020526040902054610c1957858410610b2c5760405162461bcd60e51b815260206004820152603060248201527f596f752063616e206e6f74206d696e74206f766572207468616e20696e69746960448201526f185b0814dd5c1c1b1e4e88199a5c9cdd60821b60648201526084016106d9565b600480546000908152600b602090815260408083208a905583548352600a825280832080546001600160a01b0319166001600160a01b03881617905583548352600d909152902084905554610b81908861113f565b610b9e8960045486604051806020016040528060008152506115e8565b6004546000908152600c602052604081208054869290610bbf9084906126fc565b909155505060048054906000610bd483612714565b91905055507f0cdae701ba22d312fc5289f8e5dcb104a74d66b544214e2f5d6c2c53c4e6f0db600454604051610c0c91815260200190565b60405180910390a1610d1b565b6000888152600b6020908152604080832054600c90925290912054610c3f9086906126fc565b10610ca95760405162461bcd60e51b815260206004820152603460248201527f596f752063616e206e6f74206d696e74206f766572207468616e20696e697469604482015273185b081cdd5c1c1b1e4e881b9bdd08199a5c9cdd60621b60648201526084016106d9565b610cc4898986604051806020016040528060008152506115e8565b6000888152600c602052604081208054869290610ce29084906126fc565b90915550506040518881527f0cdae701ba22d312fc5289f8e5dcb104a74d66b544214e2f5d6c2c53c4e6f0db9060200160405180910390a15b600954604051636eb1769f60e11b815233600482015230602482015286916001600160a01b03169063dd62ed3e90604401602060405180830381600087803b158015610d6657600080fd5b505af1158015610d7a573d6000803e3d6000fd5b505050506040513d601f19601f82011682018060405250810190610d9e91906126cd565b1015610de05760405162461bcd60e51b8152602060048201526011602482015270616c6c6f77616e6365206973206c65737360781b60448201526064016106d9565b6009546040516323b872dd60e01b81523360048201526001600160a01b03848116602483015260448201889052909116906323b872dd90606401602060405180830381600087803b158015610e3457600080fd5b505af1158015610e48573d6000803e3d6000fd5b505050506040513d601f19601f82011682018060405250810190610e6c919061272f565b509698975050505050505050565b6001600160a01b038516331480610e965750610e9685336105f0565b610eb25760405162461bcd60e51b81526004016106d99061274c565b610ebf85858585856116f2565b5050505050565b60608151835114610f2b5760405162461bcd60e51b815260206004820152602960248201527f455243313135353a206163636f756e747320616e6420696473206c656e677468604482015268040dad2e6dac2e8c6d60bb1b60648201526084016106d9565b600083516001600160401b03811115610f4657610f466120ba565b604051908082528060200260200182016040528015610f6f578160200160208202803683370190505b50905060005b8451811015610fe757610fba858281518110610f9357610f9361279e565b6020026020010151858381518110610fad57610fad61279e565b6020026020010151610671565b828281518110610fcc57610fcc61279e565b6020908102919091010152610fe081612714565b9050610f75565b509392505050565b600f5460ff16156110575760405162461bcd60e51b815260206004820152602c60248201527f45524331353520547261646561626c65206d757374206e6f7420626520636f6e60448201526b1cdd1c9d58dd1959081e595d60a21b60648201526084016106d9565b815161106a906007906020850190611f19565b50805161107e906008906020840190611f19565b505050565b6003546001600160a01b031633146110ad5760405162461bcd60e51b81526004016106d9906127b4565b6110b760006118cf565b565b600954604080516395d89b4160e01b815290516060926001600160a01b0316916395d89b41916004808301926000929190829003018186803b1580156110fe57600080fd5b505afa158015611112573d6000803e3d6000fd5b505050506040513d6000823e601f3d908101601f1916820160405261113a91908101906127e9565b905090565b6000828152600a60205260409020546001600160a01b03166111a35760405162461bcd60e51b815260206004820152601e60248201527f45524331313535237572693a204e4f4e4558495354454e545f544f4b454e000060448201526064016106d9565b6000828152600e6020908152604090912082516111c292840190611f19565b507f483621391b5e72d74eb03c7b5715531c486e326fb115ab3bcf34b133041854ce82826040516111f492919061286a565b60405180910390a15050565b6003546001600160a01b0316331461122a5760405162461bcd60e51b81526004016106d9906127b4565b805161123d906005906020840190611f19565b507fd5ee5eaf65263bab5d569890714d123ad48a9e54409d35e71d374f3dd300bba08160405161126d919061208e565b60405180910390a150565b6008805461076790612692565b611290338383611921565b5050565b600083116112e45760405162461bcd60e51b815260206004820152601960248201527f43616e206e6f74207472616e73666572207a65726f204e46540000000000000060448201526064016106d9565b61130082828686604051806020016040528060008152506114c6565b60408051858152602081018590526001600160a01b03848116828401528316606082015290517f0175694a85af06487c85f5a70828f4869e67481fd566a8c0316a88059d0f58739181900360800190a150505050565b6003546001600160a01b031633146113805760405162461bcd60e51b81526004016106d9906127b4565b6000828152600a60205260409020546001600160a01b03166113e45760405162461bcd60e51b815260206004820181905260248201527f4552433131353520236275726e3a204e4f4e4558495354454e545f544f4b454e60448201526064016106d9565b611290338383611a02565b6060600580546113fe90612692565b80601f016020809104026020016040519081016040528092919081815260200182805461142a90612692565b80156114775780601f1061144c57610100808354040283529160200191611477565b820191906000526020600020905b81548152906001019060200180831161145a57829003601f168201915b5050505050905090565b6001600160a01b03851633148061149d575061149d85336105f0565b6114b95760405162461bcd60e51b81526004016106d99061274c565b610ebf8585858585610e7a565b6001600160a01b0385163314806114e257506114e285336105f0565b6115405760405162461bcd60e51b815260206004820152602960248201527f455243313135353a2063616c6c6572206973206e6f74206f776e6572206e6f7260448201526808185c1c1c9bdd995960ba1b60648201526084016106d9565b610ebf8585858585611b7c565b6003546001600160a01b031633146115775760405162461bcd60e51b81526004016106d9906127b4565b6001600160a01b0381166115dc5760405162461bcd60e51b815260206004820152602660248201527f4f776e61626c653a206e6577206f776e657220697320746865207a65726f206160448201526564647265737360d01b60648201526084016106d9565b6115e5816118cf565b50565b6001600160a01b0384166116485760405162461bcd60e51b815260206004820152602160248201527f455243313135353a206d696e7420746f20746865207a65726f206164647265736044820152607360f81b60648201526084016106d9565b336116628160008761165988611c99565b610ebf88611c99565b6000848152602081815260408083206001600160a01b0389168452909152812080548592906116929084906126fc565b909155505060408051858152602081018590526001600160a01b0380881692600092918516917fc3d58168c5ae7397731d063d5bbf3d657854427343f4c083240f7aacaa2d0f62910160405180910390a4610ebf81600087878787611ce4565b81518351146117545760405162461bcd60e51b815260206004820152602860248201527f455243313135353a2069647320616e6420616d6f756e7473206c656e677468206044820152670dad2e6dac2e8c6d60c31b60648201526084016106d9565b6001600160a01b03841661177a5760405162461bcd60e51b81526004016106d990612883565b3360005b845181101561186157600085828151811061179b5761179b61279e565b6020026020010151905060008583815181106117b9576117b961279e565b602090810291909101810151600084815280835260408082206001600160a01b038e1683529093529190912054909150818110156118095760405162461bcd60e51b81526004016106d9906128c8565b6000838152602081815260408083206001600160a01b038e8116855292528083208585039055908b168252812080548492906118469084906126fc565b925050819055505050508061185a90612714565b905061177e565b50846001600160a01b0316866001600160a01b0316826001600160a01b03167f4a39dc06d4c0dbc64b70af90fd698a233a518aa5d07e595d983b8c0526c8f7fb87876040516118b1929190612912565b60405180910390a46118c7818787878787611e4f565b505050505050565b600380546001600160a01b038381166001600160a01b0319831681179093556040519116919082907f8be0079c531659141344cd1fd0a4f28419497f9722a3daafe3b4186f6b6457e090600090a35050565b816001600160a01b0316836001600160a01b031614156119955760405162461bcd60e51b815260206004820152602960248201527f455243313135353a2073657474696e6720617070726f76616c20737461747573604482015268103337b91039b2b63360b91b60648201526084016106d9565b6001600160a01b03838116600081815260016020908152604080832094871680845294825291829020805460ff191686151590811790915591519182527f17307eab39ab6107e8899845ad3d59bd9653f200f220920489ca2b5937696c31910160405180910390a3505050565b6001600160a01b038316611a645760405162461bcd60e51b815260206004820152602360248201527f455243313135353a206275726e2066726f6d20746865207a65726f206164647260448201526265737360e81b60648201526084016106d9565b33611a9481856000611a7587611c99565b611a7e87611c99565b5050604080516020810190915260009052505050565b6000838152602081815260408083206001600160a01b038816845290915290205482811015611b115760405162461bcd60e51b8152602060048201526024808201527f455243313135353a206275726e20616d6f756e7420657863656564732062616c604482015263616e636560e01b60648201526084016106d9565b6000848152602081815260408083206001600160a01b03898116808652918452828520888703905582518981529384018890529092908616917fc3d58168c5ae7397731d063d5bbf3d657854427343f4c083240f7aacaa2d0f62910160405180910390a45050505050565b6001600160a01b038416611ba25760405162461bcd60e51b81526004016106d990612883565b33611bb281878761165988611c99565b6000848152602081815260408083206001600160a01b038a16845290915290205483811015611bf35760405162461bcd60e51b81526004016106d9906128c8565b6000858152602081815260408083206001600160a01b038b8116855292528083208785039055908816825281208054869290611c309084906126fc565b909155505060408051868152602081018690526001600160a01b03808916928a821692918616917fc3d58168c5ae7397731d063d5bbf3d657854427343f4c083240f7aacaa2d0f62910160405180910390a4611c90828888888888611ce4565b50505050505050565b60408051600180825281830190925260609160009190602080830190803683370190505090508281600081518110611cd357611cd361279e565b602090810291909101015292915050565b6001600160a01b0384163b156118c75760405163f23a6e6160e01b81526001600160a01b0385169063f23a6e6190611d289089908990889088908890600401612940565b602060405180830381600087803b158015611d4257600080fd5b505af1925050508015611d72575060408051601f3d908101601f19168201909252611d6f91810190612985565b60015b611e1f57611d7e6129a2565b806308c379a01415611db85750611d936129be565b80611d9e5750611dba565b8060405162461bcd60e51b81526004016106d9919061208e565b505b60405162461bcd60e51b815260206004820152603460248201527f455243313135353a207472616e7366657220746f206e6f6e20455243313135356044820152732932b1b2b4bb32b91034b6b83632b6b2b73a32b960611b60648201526084016106d9565b6001600160e01b0319811663f23a6e6160e01b14611c905760405162461bcd60e51b81526004016106d990612a47565b6001600160a01b0384163b156118c75760405163bc197c8160e01b81526001600160a01b0385169063bc197c8190611e939089908990889088908890600401612a8f565b602060405180830381600087803b158015611ead57600080fd5b505af1925050508015611edd575060408051601f3d908101601f19168201909252611eda91810190612985565b60015b611ee957611d7e6129a2565b6001600160e01b0319811663bc197c8160e01b14611c905760405162461bcd60e51b81526004016106d990612a47565b828054611f2590612692565b90600052602060002090601f016020900481019282611f475760008555611f8d565b82601f10611f6057805160ff1916838001178555611f8d565b82800160010185558215611f8d579182015b82811115611f8d578251825591602001919060010190611f72565b50611f99929150611f9d565b5090565b5b80821115611f995760008155600101611f9e565b80356001600160a01b0381168114611fc957600080fd5b919050565b60008060408385031215611fe157600080fd5b611fea83611fb2565b946020939093013593505050565b6001600160e01b0319811681146115e557600080fd5b60006020828403121561202057600080fd5b813561202b81611ff8565b9392505050565b60005b8381101561204d578181015183820152602001612035565b8381111561205c576000848401525b50505050565b6000815180845261207a816020860160208601612032565b601f01601f19169290920160200192915050565b60208152600061202b6020830184612062565b6000602082840312156120b357600080fd5b5035919050565b634e487b7160e01b600052604160045260246000fd5b601f8201601f191681016001600160401b03811182821017156120f5576120f56120ba565b6040525050565b60006001600160401b03821115612115576121156120ba565b50601f01601f191660200190565b600082601f83011261213457600080fd5b813561213f816120fc565b60405161214c82826120d0565b82815285602084870101111561216157600080fd5b82602086016020830137600092810160200192909252509392505050565b600080600080600080600080610100898b03121561219c57600080fd5b6121a589611fb2565b97506020890135965060408901356001600160401b038111156121c757600080fd5b6121d38b828c01612123565b965050606089013594506080890135935060a0890135925060c089013591506121fe60e08a01611fb2565b90509295985092959890939650565b60006001600160401b03821115612226576122266120ba565b5060051b60200190565b600082601f83011261224157600080fd5b8135602061224e8261220d565b60405161225b82826120d0565b83815260059390931b850182019282810191508684111561227b57600080fd5b8286015b84811015612296578035835291830191830161227f565b509695505050505050565b600080600080600060a086880312156122b957600080fd5b6122c286611fb2565b94506122d060208701611fb2565b935060408601356001600160401b03808211156122ec57600080fd5b6122f889838a01612230565b9450606088013591508082111561230e57600080fd5b61231a89838a01612230565b9350608088013591508082111561233057600080fd5b5061233d88828901612123565b9150509295509295909350565b6000806040838503121561235d57600080fd5b82356001600160401b038082111561237457600080fd5b818501915085601f83011261238857600080fd5b813560206123958261220d565b6040516123a282826120d0565b83815260059390931b85018201928281019150898411156123c257600080fd5b948201945b838610156123e7576123d886611fb2565b825294820194908201906123c7565b965050860135925050808211156123fd57600080fd5b5061240a85828601612230565b9150509250929050565b600081518084526020808501945080840160005b8381101561244457815187529582019590820190600101612428565b509495945050505050565b60208152600061202b6020830184612414565b6000806040838503121561247557600080fd5b82356001600160401b038082111561248c57600080fd5b61249886838701612123565b935060208501359150808211156124ae57600080fd5b5061240a85828601612123565b600080604083850312156124ce57600080fd5b8235915060208301356001600160401b038111156124eb57600080fd5b61240a85828601612123565b60006020828403121561250957600080fd5b81356001600160401b0381111561251f57600080fd5b61252b84828501612123565b949350505050565b80151581146115e557600080fd5b6000806040838503121561255457600080fd5b61255d83611fb2565b9150602083013561256d81612533565b809150509250929050565b6000806000806080858703121561258e57600080fd5b84359350602085013592506125a560408601611fb2565b91506125b360608601611fb2565b905092959194509250565b600080604083850312156125d157600080fd5b50508035926020909101359150565b600080604083850312156125f357600080fd5b6125fc83611fb2565b915061260a60208401611fb2565b90509250929050565b600080600080600060a0868803121561262b57600080fd5b61263486611fb2565b945061264260208701611fb2565b9350604086013592506060860135915060808601356001600160401b0381111561266b57600080fd5b61233d88828901612123565b60006020828403121561268957600080fd5b61202b82611fb2565b600181811c908216806126a657607f821691505b602082108114156126c757634e487b7160e01b600052602260045260246000fd5b50919050565b6000602082840312156126df57600080fd5b5051919050565b634e487b7160e01b600052601160045260246000fd5b6000821982111561270f5761270f6126e6565b500190565b6000600019821415612728576127286126e6565b5060010190565b60006020828403121561274157600080fd5b815161202b81612533565b60208082526032908201527f455243313135353a207472616e736665722063616c6c6572206973206e6f74206040820152711bdddb995c881b9bdc88185c1c1c9bdd995960721b606082015260800190565b634e487b7160e01b600052603260045260246000fd5b6020808252818101527f4f776e61626c653a2063616c6c6572206973206e6f7420746865206f776e6572604082015260600190565b6000602082840312156127fb57600080fd5b81516001600160401b0381111561281157600080fd5b8201601f8101841361282257600080fd5b805161282d816120fc565b60405161283a82826120d0565b82815286602084860101111561284f57600080fd5b612860836020830160208701612032565b9695505050505050565b82815260406020820152600061252b6040830184612062565b60208082526025908201527f455243313135353a207472616e7366657220746f20746865207a65726f206164604082015264647265737360d81b606082015260800190565b6020808252602a908201527f455243313135353a20696e73756666696369656e742062616c616e636520666f60408201526939103a3930b739b332b960b11b606082015260800190565b6040815260006129256040830185612414565b82810360208401526129378185612414565b95945050505050565b6001600160a01b03868116825285166020820152604081018490526060810183905260a06080820181905260009061297a90830184612062565b979650505050505050565b60006020828403121561299757600080fd5b815161202b81611ff8565b600060033d11156129bb5760046000803e5060005160e01c5b90565b600060443d10156129cc5790565b6040516003193d81016004833e81513d6001600160401b0381602484011181841117156129fb57505050505090565b8285019150815181811115612a135750505050505090565b843d8701016020828501011115612a2d5750505050505090565b612a3c602082860101876120d0565b509095945050505050565b60208082526028908201527f455243313135353a204552433131353552656365697665722072656a656374656040820152676420746f6b656e7360c01b606082015260800190565b6001600160a01b0386811682528516602082015260a060408201819052600090612abb90830186612414565b8281036060840152612acd8186612414565b90508281036080840152612ae18185612062565b9897505050505050505056fea264697066735822122026dd90a8e8664c1c82590641574e5170c0b348c22a7ce71634dc30cb6e5abdd864736f6c63430008090033",
  "devdoc": {
    "kind": "dev",
    "methods": {
      "balanceOf(address,uint256)": {
        "details": "See {IERC1155-balanceOf}. Requirements: - `account` cannot be the zero address."
      },
      "balanceOfBatch(address[],uint256[])": {
        "details": "See {IERC1155-balanceOfBatch}. Requirements: - `accounts` and `ids` must have the same length."
      },
      "isApprovedForAll(address,address)": {
        "details": "See {IERC1155-isApprovedForAll}."
      },
      "owner()": {
        "details": "Returns the address of the current owner."
      },
      "renounceOwnership()": {
        "details": "Leaves the contract without owner. It will not be possible to call `onlyOwner` functions anymore. Can only be called by the current owner. NOTE: Renouncing ownership will leave the contract without an owner, thereby removing any functionality that is only available to the owner."
      },
      "safeBatchTransferFrom(address,address,uint256[],uint256[],bytes)": {
        "details": "See {IERC1155-safeBatchTransferFrom}."
      },
      "safeTransferFrom(address,address,uint256,uint256,bytes)": {
        "details": "See {IERC1155-safeTransferFrom}."
      },
      "setApprovalForAll(address,bool)": {
        "details": "See {IERC1155-setApprovalForAll}."
      },
      "supportsInterface(bytes4)": {
        "details": "See {IERC165-supportsInterface}."
      },
      "transferOwnership(address)": {
        "details": "Transfers ownership of the contract to a new account (`newOwner`). Can only be called by the current owner."
      }
    },
    "version": 1
  },
  "userdoc": {
    "kind": "user",
    "methods": {},
    "version": 1
  },
  "storageLayout": {
    "storage": [
      {
        "astId": 130,
        "contract": "contracts/Crea2orsNFT_v5.1.sol:Crea2orsNFT",
        "label": "_balances",
        "offset": 0,
        "slot": "0",
        "type": "t_mapping(t_uint256,t_mapping(t_address,t_uint256))"
      },
      {
        "astId": 136,
        "contract": "contracts/Crea2orsNFT_v5.1.sol:Crea2orsNFT",
        "label": "_operatorApprovals",
        "offset": 0,
        "slot": "1",
        "type": "t_mapping(t_address,t_mapping(t_address,t_bool))"
      },
      {
        "astId": 138,
        "contract": "contracts/Crea2orsNFT_v5.1.sol:Crea2orsNFT",
        "label": "_uri",
        "offset": 0,
        "slot": "2",
        "type": "t_string_storage"
      },
      {
        "astId": 7,
        "contract": "contracts/Crea2orsNFT_v5.1.sol:Crea2orsNFT",
        "label": "_owner",
        "offset": 0,
        "slot": "3",
        "type": "t_address"
      },
      {
        "astId": 2550,
        "contract": "contracts/Crea2orsNFT_v5.1.sol:Crea2orsNFT",
        "label": "_currentTokenID",
        "offset": 0,
        "slot": "4",
        "type": "t_uint256"
      },
      {
        "astId": 2552,
        "contract": "contracts/Crea2orsNFT_v5.1.sol:Crea2orsNFT",
        "label": "_contractURI",
        "offset": 0,
        "slot": "5",
        "type": "t_string_storage"
      },
      {
        "astId": 2554,
        "contract": "contracts/Crea2orsNFT_v5.1.sol:Crea2orsNFT",
        "label": "tokenLimit",
        "offset": 0,
        "slot": "6",
        "type": "t_uint256"
      },
      {
        "astId": 2556,
        "contract": "contracts/Crea2orsNFT_v5.1.sol:Crea2orsNFT",
        "label": "name",
        "offset": 0,
        "slot": "7",
        "type": "t_string_storage"
      },
      {
        "astId": 2558,
        "contract": "contracts/Crea2orsNFT_v5.1.sol:Crea2orsNFT",
        "label": "symbol",
        "offset": 0,
        "slot": "8",
        "type": "t_string_storage"
      },
      {
        "astId": 2561,
        "contract": "contracts/Crea2orsNFT_v5.1.sol:Crea2orsNFT",
        "label": "cr2Contract",
        "offset": 0,
        "slot": "9",
        "type": "t_contract(ICrea2Crypto)2541"
      },
      {
        "astId": 2570,
        "contract": "contracts/Crea2orsNFT_v5.1.sol:Crea2orsNFT",
        "label": "royaltyAddresses",
        "offset": 0,
        "slot": "10",
        "type": "t_mapping(t_uint256,t_address)"
      },
      {
        "astId": 2574,
        "contract": "contracts/Crea2orsNFT_v5.1.sol:Crea2orsNFT",
        "label": "initialSupplies",
        "offset": 0,
        "slot": "11",
        "type": "t_mapping(t_uint256,t_uint256)"
      },
      {
        "astId": 2578,
        "contract": "contracts/Crea2orsNFT_v5.1.sol:Crea2orsNFT",
        "label": "curMintedSupplies",
        "offset": 0,
        "slot": "12",
        "type": "t_mapping(t_uint256,t_uint256)"
      },
      {
        "astId": 2582,
        "contract": "contracts/Crea2orsNFT_v5.1.sol:Crea2orsNFT",
        "label": "royaltyFees",
        "offset": 0,
        "slot": "13",
        "type": "t_mapping(t_uint256,t_uint256)"
      },
      {
        "astId": 2586,
        "contract": "contracts/Crea2orsNFT_v5.1.sol:Crea2orsNFT",
        "label": "metaDataUris",
        "offset": 0,
        "slot": "14",
        "type": "t_mapping(t_uint256,t_string_storage)"
      },
      {
        "astId": 2589,
        "contract": "contracts/Crea2orsNFT_v5.1.sol:Crea2orsNFT",
        "label": "constructed",
        "offset": 0,
        "slot": "15",
        "type": "t_bool"
      }
    ],
    "types": {
      "t_address": {
        "encoding": "inplace",
        "label": "address",
        "numberOfBytes": "20"
      },
      "t_bool": {
        "encoding": "inplace",
        "label": "bool",
        "numberOfBytes": "1"
      },
      "t_contract(ICrea2Crypto)2541": {
        "encoding": "inplace",
        "label": "contract ICrea2Crypto",
        "numberOfBytes": "20"
      },
      "t_mapping(t_address,t_bool)": {
        "encoding": "mapping",
        "key": "t_address",
        "label": "mapping(address => bool)",
        "numberOfBytes": "32",
        "value": "t_bool"
      },
      "t_mapping(t_address,t_mapping(t_address,t_bool))": {
        "encoding": "mapping",
        "key": "t_address",
        "label": "mapping(address => mapping(address => bool))",
        "numberOfBytes": "32",
        "value": "t_mapping(t_address,t_bool)"
      },
      "t_mapping(t_address,t_uint256)": {
        "encoding": "mapping",
        "key": "t_address",
        "label": "mapping(address => uint256)",
        "numberOfBytes": "32",
        "value": "t_uint256"
      },
      "t_mapping(t_uint256,t_address)": {
        "encoding": "mapping",
        "key": "t_uint256",
        "label": "mapping(uint256 => address)",
        "numberOfBytes": "32",
        "value": "t_address"
      },
      "t_mapping(t_uint256,t_mapping(t_address,t_uint256))": {
        "encoding": "mapping",
        "key": "t_uint256",
        "label": "mapping(uint256 => mapping(address => uint256))",
        "numberOfBytes": "32",
        "value": "t_mapping(t_address,t_uint256)"
      },
      "t_mapping(t_uint256,t_string_storage)": {
        "encoding": "mapping",
        "key": "t_uint256",
        "label": "mapping(uint256 => string)",
        "numberOfBytes": "32",
        "value": "t_string_storage"
      },
      "t_mapping(t_uint256,t_uint256)": {
        "encoding": "mapping",
        "key": "t_uint256",
        "label": "mapping(uint256 => uint256)",
        "numberOfBytes": "32",
        "value": "t_uint256"
      },
      "t_string_storage": {
        "encoding": "bytes",
        "label": "string",
        "numberOfBytes": "32"
      },
      "t_uint256": {
        "encoding": "inplace",
        "label": "uint256",
        "numberOfBytes": "32"
      }
    }
  }
}